:020000040800F2
:100000000020002025280008752800087528000811
:1000100000000000000000000000000000000000E0
:10002000000000000000000000000000752800082B
:10003000752800080000000075280008F326000855
:10004000752800087528000875280008752800081C
:10005000752800082927000875280008E1260008EF
:1000600000000000752800087528000875280008A1
:10007000FF26000875280008000000007528000809
:1000800000000000CD260008000000000000000075
:100090007528000800000000752800087528000871
:1000A000752800081527000875280008752800081D
:1000B00075280008752800080000000000000000F6
:1000C00010B5064C2378002B07D1054B002B02D02E
:1000D000044800E000BF0123237010BD7804002015
:1000E000000000001C76000808B5084B002B03D068
:1000F0000748084900E000BF07480368002B00D10B
:1001000008BD064B002BFBD09847F9E70000000024
:100110001C7600087C04002074040020000000000D
:10012000F0B50B6885B002930023009101249C4038
:10013000029A2240A24200D096E0009910244D6815
:100140002E1CA643341C013E022C0FD107260F2182
:100150001E40B600B140DC08A4000419276A8F4392
:1001600000990969B1400F43276201E0012E10D8C0
:10017000032700995E00C968B740B140EE06F60F4C
:100180009E408468BC430C43846044689443344379
:10019000446003265F00BE40F64304683440A44632
:1001A00003242C406146BC400C43009904608968DC
:1001B000C468B94026400E43C660E90054D5012703
:1001C0002C4E2D49746B3C43746303249E08B60087
:1001D0007618B1681C408C46A100102464428C4003
:1001E0000191614621400391A0210024C905884264
:1001F00011D03C1C214FB8420DD0214F2419B842D8
:1002000009D0204F0134B84205D01F49441861423B
:10021000614105277C1A01998C4003990C43B46015
:100220001A4CD64321680F1C8C461743E90301D4AE
:1002300067463740276061680F1C8C461743A90347
:1002400001D4674637406760A1680F1C8C4617438E
:10025000E90201D467463740A760E7683A43A9023C
:1002600001D43A1C3240E2600133102B00D05DE72C
:1002700005B0F0BD00100240000001400004005035
:1002800000080050000C005000E4FFAF00040140E3
:10029000F7B58C4600220121634691400B408B420A
:1002A00037D103255400A540EC430168D70821400D
:1002B000BF000160C719396A072501910F210E1C83
:1002C0001540AD00AE40351C019EDB43AE433E629F
:1002D00003261640B600B140856825408560456814
:1002E0001D404560C5682C40C4600C4D9408A400B6
:1002F0006419A5688D430A49A5600C681C400C6010
:100300004C681C404C608C681C408C60CC6823405E
:10031000CB600132102ABED1F7BDC04600000140BB
:100320000004014000690840411E8841C0B2704786
:10033000002A01D0816100E0816270474369594021
:1003400041617047802382B05B020193019B0B43A4
:100350000193019BC361C161019BC361C3690193A7
:10036000C36901201B0C984302B07047704708B561
:10037000034B5A69024202D0586102F07DFF08BD6A
:100380000004014080220368D205904204D170220B
:1003900093434A6813430DE0094A90420AD0094A40
:1003A000904207D003608B68C3620B6883620123AD
:1003B00043617047044A1340CA681343F2E7C046DA
:1003C0000008014000140140FFFCFFFF012230B58E
:1003D0007325036A93430362036A44688269AA43EC
:1003E0000D682A430225AB438D68446082614A68E8
:1003F0002B434263036230BD1022036A30B593433E
:100400000362036A084A446885692A400D682D0220
:100410002A432025AB438D6844602D0182614A68E0
:100420002B438263036230BDFF8CFFFFF0B50126D2
:100430008027046AFF05B44304628469056AB842F0
:1004400005D00B4FB84202D00A4FB84202D1032662
:10045000B44302E003229443321C2243F0241B01E4
:10046000A2431A430A239D43294382610162F0BDDE
:10047000000801400014014010B501248C408A405E
:10048000036AA3430362036A1A43026210BD704702
:1004900038B50123002810D0051C35352B78041CF5
:1004A000002B01D101F040FE0223211D2B7020689A
:1004B000FFF768FF01232B700023181C38BD70471D
:1004C00038B50123002810D0051C35352B78041CC5
:1004D000002B01D1FFF7F3FF0223211D2B702068B1
:1004E000FFF750FF01232B700023181C38BD704705
:1004F00038B50123002810D0051C35352B78041C95
:10050000002B01D1FFF7F3FF0223211D2B70206880
:10051000FFF738FF01232B700023181C38BD7047EC
:1005200038B50123002810D0051C35352B78041C64
:10053000002B01D1FFF7F3FF0223211D2B70206850
:10054000FFF720FF01232B700023181C38BD7047D4
:1005500070B50123002819D0051C35352B780E1CE9
:10056000041C002B01D1FFF7F2FF0223211D2B7089
:100570002068FFF707FF082123681A688A431A607A
:1005800019683143196001232B700023181C70BDBA
:100590007047F8B50123002839D0061C353633786A
:1005A0000C1C051C002B01D1FFF7F2FF291C0223B4
:1005B000072201C93370836893438360FFF7E2FE2B
:1005C000286823688568A16987691D43114B090262
:1005D0003B400B43A168104F0B431F40E369026A85
:1005E000190223691B011943E3680B43216A0903BC
:1005F0000B43AA218A4361693B4309010A436168AD
:100600008560836101230A43026233700023181C52
:10061000F8BDC046FCFCFFFF0303FFFF704738B581
:10062000051C022335352B700368084A196A041C1F
:10063000114203D101211A688A431A60201C01F07B
:10064000A3FD002034342870207038BD1111000043
:10065000704738B5051C022335352B700368084AEE
:10066000196A041C114203D101211A688A431A60D5
:10067000201CFFF7EDFF002034342870207038BDB7
:1006800011110000704738B5051C022335352B7059
:100690000368084A196A041C114203D101211A682F
:1006A0008A431A60201CFFF7EDFF002034342870C5
:1006B000207038BD11110000704738B5051C0223A9
:1006C00035352B700368084A196A041C114203D19E
:1006D00001211A688A431A60201CFFF7EDFF0020F1
:1006E00034342870207038BD11110000704738B5BF
:1006F000051C022335352B700368084A196A041C4F
:10070000114203D101211A688A431A60201CFFF7A5
:10071000EDFF002034342870207038BD1111000026
:10072000704738B5051C022335352B700368084A1D
:10073000196A041C114203D101211A688A431A6004
:10074000201CFFF7EDFF002034342870207038BDE6
:1007500011110000021C02230121006835321370C0
:1007600003680B430360002011707047011C0223D3
:1007700035310B700368064A186A104203D1012014
:100780001A6882431A60012300200B707047C0462C
:100790001111000003680120D9680143D9601A686B
:1007A00002431A600020704701210368DA688A4317
:1007B000DA60186A034A104202D11A688A431A6042
:1007C000002070471111000070B5061C051C0220A6
:1007D0003536337883421FD03478E4B2012C06D109
:1007E000002902D1201C002A16D102233370131CC9
:1007F000A8690A4AC2620A4A42632A682C3202F095
:10080000DBF9802100202B684900DA680A43DA60AE
:100810001A68FF390A431A6070BDC046EF1B000812
:10082000411C00080368084AD9680A40DA60196A5E
:10083000064A114203D101211A688A431A60012332
:100840003530037000207047FFFEFFFF11110000DC
:1008500010B5041C01220068FFF70EFE012122687A
:10086000002013680B43136010BD10B5041C002258
:100870000068FFF701FE2368044A196A114203D198
:1008800001211A688A431A60002010BD111100006E
:1008900010B5041C0C291AD8081C05F0A5F8071877
:1008A00018180B1818180F181818130022680220AF
:1008B000D3680AE022680420D36806E02268082092
:1008C000D36802E010202268D3680343D360206815
:1008D0000122FFF7D1FD01212268002013680B439C
:1008E000136010BD10B5041C0C291AD8081C05F0A3
:1008F0007BF8071818180B1818180F181818130079
:1009000022680220D3680AE022680420D36806E047
:1009100022680820D36802E010202268D36883434D
:10092000D36000222068FFF7A7FD2368044A196AF4
:10093000114203D101211A688A431A60002010BDB8
:100940001111000070B5061C041C022035360D1C68
:10095000317881425AD03078C0B2012805D1002ABE
:1009600001D1002B52D102213170111C0C2D42D823
:10097000281C05F039F8074040401540404023400E
:1009800040403100E069224AC262224A4263226842
:10099000343202F011F9802122688900D36828E0FE
:1009A000206A1B4AC2621B4A42632268383202F044
:1009B00003F980212268C900D3681AE0606A144AEA
:1009C000C262144A426322683C3202F0F5F8802188
:1009D00022680901D3680CE0A06A0D4AC2620D4A80
:1009E00042632268403202F0E7F880212268490120
:1009F000D3680B43D3602068291C0122FFF73CFD1C
:100A000001210020226813680B43136070BDC046AB
:100A1000191C0008411C000810B5041C0C291AD828
:100A2000081C04F0E1FF071818180B1818180F1805
:100A3000181813002268114BD0680AE02268104B86
:100A4000D06806E022680F4BD06802E022680E4BA7
:100A5000D0680340D36000222068FFF70DFD2368B3
:100A60000A4A196A114203D101211A688A431A609D
:100A7000012335340020237010BDC046FFFDFFFF69
:100A8000FFFBFFFFFFF7FFFFFFEFFFFF111100006C
:100A900010B5041C01220068FFF7EEFC012122685A
:100AA000002013680B43136010BD10B5041C002216
:100AB0000068FFF7E1FC2368064A196A114203D176
:100AC00001211A688A431A600123353400202370FB
:100AD00010BDC0461111000010B5041C0C291AD815
:100AE000081C04F081FF071818180B1818180F18A5
:100AF0001818130022680220D3680AE02268042034
:100B0000D36806E022680820D36802E0102022683B
:100B1000D3680343D36020680122FFF7ADFC0121B5
:100B20002268002013680B43136010BD10B5041C2D
:100B30000C291AD8081C04F057FF071818180B18AE
:100B400018180F181818130022680220D3680AE03A
:100B500022680420D36806E022680820D36802E0F7
:100B600010202268D3688343D36000222068FFF7F7
:100B700083FC2368044A196A114203D101211A68CF
:100B80008A431A60002010BD1111000070B5061CC8
:100B9000041C022035360D1C317881425AD0307841
:100BA000C0B2012805D1002A01D1002B52D1022167
:100BB0003170111C0C2D42D8281C04F015FF074081
:100BC000404015404040234040403100E069224A07
:100BD000C262224A42632268343201F0EDFF802172
:100BE00022688900D36828E0206A1B4AC2621B4A37
:100BF00042632268383201F0DFFF80212268C90099
:100C0000D3681AE0606A144AC262144A42632268D6
:100C10003C3201F0D1FF802122680901D3680CE049
:100C2000A06A0D4AC2620D4A42632268403201F056
:100C3000C3FF802122684901D3680B43D360206839
:100C4000291C0122FFF718FC0121002022681368EB
:100C50000B43136070BDC046191C0008411C0008FE
:100C600010B5041C0C291AD8081C04F0BDFE071886
:100C700018180B1818180F18181813002268114BA1
:100C8000D0680AE02268104BD06806E022680F4B5B
:100C9000D06802E022680E4BD0680340D360002287
:100CA0002068FFF7E9FB23680A4A196A114203D159
:100CB00001211A688A431A60012335340020237009
:100CC00010BDC046FFFDFFFFFFFBFFFFFFF7FFFF6B
:100CD000FFEFFFFF1111000010B5041C0122006896
:100CE000FFF7CAFB01212268002013680B43136041
:100CF00010BD10B5041C00220068FFF7BDFB23687F
:100D0000044A196A114203D101211A688A431A6000
:100D1000002010BD1111000010B5041C0C291AD8B8
:100D2000081C04F061FE071818180B1818180F1883
:100D30001818130022680220D3680AE022680420F1
:100D4000D36806E022680820D36802E010202268F9
:100D5000D3680343D36020680122FFF78DFB012194
:100D60002268002013680B43136010BD10B5041CEB
:100D70000C291AD8081C04F037FE071818180B188D
:100D800018180F181818130022680220D3680AE0F8
:100D900022680420D36806E022680820D36802E0B5
:100DA00010202268D3688343D36000222068FFF7B5
:100DB00063FB2368044A196A114203D101211A68AE
:100DC0008A431A60002010BD1111000070B5051C87
:100DD000041C022035352E7886425AD02878C0B2BD
:100DE000012805D1002A01D1002B52D10220287000
:100DF0000D1E0C2D42D8081C04F0F6FD07404040A3
:100E000015404040234040403100E0692149C16223
:100E1000214941632168343101F0CEFE80212268EE
:100E20008900D36828E0206A1A49C1621A494163DF
:100E30002168383101F0C0FE80212268C900D368E2
:100E40001AE0606A1349C1621349416321683C3169
:100E500001F0B2FE802122680901D3680CE0A06A8B
:100E60000C49C1620C4941632168403101F0A4FE84
:100E7000802122684901D3680B43D3602068291C74
:100E80000122FFF7F9FA01210020226813680B43C1
:100E9000136070BD051C0008411C000810B5041C3F
:100EA0000C291AD8081C04F09FFD071818180B18F5
:100EB00018180F18181813002268114BD0680AE090
:100EC0002268104BD06806E022680F4BD06802E021
:100ED00022680E4BD0680340D36000222068FFF7E1
:100EE000CBFA23680A4A196A114203D101211A6810
:100EF0008A431A60012335340020237010BDC04698
:100F0000FFFDFFFFFFFBFFFFFFF7FFFFFFEFFFFF0F
:100F10001111000003680120196A814319621A6ADD
:100F200002431A62196A0F30814319621A6A024336
:100F30001A62002070470121036810201A6A8A4350
:100F40001A621A6A1A621A6A82431A621A6A1A6260
:100F5000186A044A104202D11A688A431A600020B3
:100F60007047C04611110000022103680120DA68B1
:100F70000A43DA60DA6849180A43DA60196A814379
:100F800019621A6A02431A62196A0F3081431962A0
:100F90001A6A02431A620020704702210368102077
:100FA000DA688A43DA60DA6849188A43DA601A6ACA
:100FB00003398A431A621A6A1A621A6A82431A62E7
:100FC0001A6A1A62186A044A104202D11A688A43DD
:100FD0001A6000207047C04611110000036801220A
:100FE000002908D004290CD0196A91431962196AA2
:100FF0000A431A6205E0196A91431962196A0A43A1
:1010000005E01020196A814319621A6A024301211E
:101010001A621A6800200A431A60704703680029A0
:1010200004D0042905D11A6A10210AE01A6A0121A4
:1010300007E001211A6A8A431A621A6A0F311A629A
:101040001A6A8A431A621A6A1A62196A044A1142AF
:1010500003D101211A688A431A6000207047C046F4
:101060001111000010B50368012200290CD00429D9
:1010700013D11024186AA04318621A6A22431A6214
:10108000DA681143D9601DE0196A91431962196A3F
:101090000A431A62DA68022112E01020196A9143A9
:1010A0001962196A0A431A62196A81431962022194
:1010B0001A6A02431A62DA680A43DA60DA6849187F
:1010C0000A43DA6001211A6800200A431A6010BD41
:1010D000036810B51A6A0124002904D1A2431A62D8
:1010E0001A6A1A6216E0042906D11024A2431A6271
:1010F0001A6A1A62DA680FE01021A2431A621A6AA9
:101100001A621A6A8A431A621A6A0E391A62DA680D
:101110008A43DA60DA6802318A43DA60196A064A79
:10112000114203D101211A688A431A600123353024
:101130000370002010BDC04611110000F8B506ACC8
:101140002588041C022735342678BE427DD02678B7
:10115000012E08D1002A01D0002B02D10127002D39
:1011600073D1022626701E1C0F1C041C04291ED0DD
:10117000182939D0002967D1C069354B2168C3626D
:10118000344B343143632B1C01F016FD802123685E
:101190008900DA680A430121DA601A680A431A6092
:1011A0001A6A8A431A621A6A0A431A624DE0006A8E
:1011B000274B2168C362274B38314363321C2B1CF9
:1011C00001F0FAFC80212368C900DA6810200A4384
:1011D0000121DA601A680A431A60196A81431962A8
:1011E0001A6A02431A622FE0C069194F194B21682D
:1011F000436334312B1CC76201F0DEFC206A154BBF
:10120000216843633831321C2B1CC76201F0D4FCC7
:101210000121102023681A680A431A601A6A8A4357
:101220001A621A6A0A431A62196A81431962802192
:101230001A6A890002431A62DA680A438021DA6076
:10124000DA68C9000A43DA600027381CF8BDC046D6
:10125000051C0008411C000810B503680124002982
:1012600007D11A6AA2431A621A6A1A62D968154A21
:1012700019E0154A042906D11024196AA1431962FC
:10128000196A19620EE0196AA14310241962196AD9
:101290001962196AA1431962196A1962DC6809495D
:1012A0002140D960D9680A40DA60196A074A1142B8
:1012B00003D101211A688A431A6001233530037073
:1012C000002010BDFFFDFFFFFFFBFFFF111100001D
:1012D000F8B5041C022634342578031C301C012D7B
:1012E00049D01D1C0138353520702E700C2A3ED88F
:1012F000101C04F079FB073C3C3C0B3C3C3C0F3C95
:101300003C3C25001868FFF761F830E01868FFF7EB
:1013100073F82CE01B68184A186A02401A6273229C
:101320001F6A5E68D86990430A681043134A3A40BE
:101330008F6849683F025E603A43D861D96315E01F
:101340001B680F4A186A02401A621F6A0D4A5E68DB
:10135000D86910400A68120210430B4A3A408F685D
:1013600049683F035E603A43D86119641A620123F9
:1013700000202B702070F8BDFFFEFFFFFFFDFFFF78
:10138000FFEFFFFFFF8CFFFFFFDFFFFF031CF7B541
:10139000022734331D783C1C012D7ED00E1C012108
:1013A000051C19705F70002A0DD131687268F368EE
:1013B0000068FFF73BF80C212B689A698A439A6111
:1013C0009969B26824E03168036801917068F46833
:1013D000042A20D110271A6A0002BA431A629A69B5
:1013E0002F4F944661460F4038432E4F2403384018
:1013F0002043A0241A6A0199A2430901114398616C
:1014000019629969284A0A409A61B2689969120278
:101410000A439A613AE0B6681F6A082A18D1032184
:10142000224A24013A401A62DF691A6A8F4338431C
:10143000F0270199B8431E4F09023A400A430C2194
:101440002043D8611A62DA698A43DA61DA691BE0FB
:10145000184A00023A401A62DA691F6A94466146E5
:101460000F4A24030A4010430E4A01991040124AC1
:1014700009033A4011430443DC611962D9690A4AFD
:1014800036020A40DA61DA691643DE612B1C01225A
:10149000002435331A70013B1C70201CFEBDC04671
:1014A000FFFCFFFFFF0FFFFFFFF3FFFFFFFEFFFF4C
:1014B000FFF5FFFFFFEFFFFFFF5FFFFFF8B5051C24
:1014C000022734352C783B1C012C00D17EE0061C11
:1014D000013B35362B7037700C2A73D8071C101C53
:1014E0000C1C04F081FA076F6F6F166F6F6F296F16
:1014F0006F6F4A003868FEF769FF08213B689A69F8
:101500000A439A619A6904398A439A619969E2683F
:101510000FE03868FEF770FF80213B6809019A6987
:101520000A439A6199692A4A0A409A61E26899696C
:1015300012020A439A6145E03B68264A196A0A404A
:101540001A6273221F6A5868D9699143226811434D
:10155000214A3A40A7685860D96161683F02D9635F
:1015600008213A431A62DA690A43DA61DA6904390E
:101570008A43DA61D969E26822E03B68174A196A4E
:101580000A401A621F6A164A5868D96911402268CF
:1015900012021143134A3A40A7685860D961616842
:1015A0003F03196480213A431A62DA6909010A4348
:1015B000DA61D969064A0A40DA61E268D969120239
:1015C0000A43DA610123337000232B70181CF8BD25
:1015D000FFFBFFFFFFFEFFFFFFFDFFFFFFEFFFFF32
:1015E000FF8CFFFFFFDFFFFFF0B51C1C85B001275C
:1015F0009A426DD0061C0223343635781F1C012D0B
:1016000066D00D1C01213170011C35310B702B6827
:10161000271C00936B68041C0193AB680293002A9B
:1016200006D0042A08D100686946FEF7E5FE03E00B
:1016300000686946FEF7CAFE002F2AD0042F42D167
:101640001020296923688C46196AEA6881436D690C
:1016500019629F6920482D03074060460002384305
:101660001E4F196A38402843A0251201A9430A4396
:1016700098611A6299691A4A0A4070219A619A68B7
:101680008A439A609A6810390A439A609A6859396D
:1016900013E00C350ECD2068FEF7C8FE0C21236840
:1016A0009A698A439A619A6864318A439A609A680F
:1016B00020390A439A609A6849398A439A609A683D
:1016C00001390A439A6001230027353423703770AB
:1016D000381C05B0F0BDC046FFFCFFFFFF0FFFFF49
:1016E000FFF3FFFFF7B5071C041C022035378C46BB
:1016F0003978089E814246D03878C0B2012805D199
:10170000002B01D1002E3ED102213970191C6346F5
:1017100001938023151CDB009A421AD008D880233D
:101720005B009A4212D0DB189A4222D1E06913E0A2
:1017300080235B019A420ED08023DB019A420DD0B8
:1017400080231B019A4214D1606A05E0A0690E4B08
:1017500006E0206A00E0A06A0C4B01E0E06A0C4B56
:10176000C3620C4B43632268330A4C32013301F0ED
:1017700023FA019A236816439E64DA680020154311
:10178000DD6001233B70FEBDEF1B0008191C000843
:101790002D1C0008411C00080268D36800208B4300
:1017A000D3607047F7B5071C041C02203537151CA1
:1017B0003A78089E824244D03878C0B2012805D1D8
:1017C000002B01D1002E3CD102223A701A1C80233A
:1017D0000191DB009D421AD008D880235B009D4216
:1017E00012D0DB189D4222D1E06913E080235B0117
:1017F0009D420ED08023DB019D420DD080231B0132
:101800009D4214D1606A05E0A0690E4B06E0206A93
:1018100000E0A06A0C4B01E0E06A0C4BC3620C4B89
:1018200043632168330A4C31013301F0C5F9019A51
:10183000236816439E64DA6800201543DD600123A7
:101840003B70FEBDEF1B0008051C00082D1C0008A6
:10185000411C00080268D36800208B43D3607047A6
:10186000021C10B534321478031C0220012C08D05D
:101870001C1C1B6835342070596100200123237023
:10188000107010BDF7B5061C022434363578031CE1
:10189000201C012D56D01F1C013830704868353788
:1018A0003C7001280FD118688D6884680190C86861
:1018B0000543AC466046244D2C40044308690502AC
:1018C00001982C4384600C2A38D8101C04F08CF842
:1018D00007363636113636361F36363629000A6850
:1018E0001B688021002A01D09A6909E09A698A431D
:1018F00007E00A681B68002A05D080219A6909025E
:101900000A439A611AE09969104A0A40F9E70A689D
:101910001B688021002A01D0DA6909E0DA698A436C
:101920000BE00A681B68002A04D08021DA690902EA
:101930000A4302E0D969054A0A40DA61012300201E
:101940003B703070FEBDC046FF00FFFFFF7FFFFF12
:10195000F0B5041C022234342578031C101C012D20
:1019600000D1A6E01D1C01271B68353527702A70A1
:101970009868504A02409A600A68402A74D016D883
:10198000102A00D186E007D8002A00D08DE070210F
:101990009A688A43693986E0202A00D17FE0302A9C
:1019A00000D082E070219A688A4339397BE0702A3E
:1019B00036D01AD8502A41D0602A76D110264A68EB
:1019C000C868196A0003B14319629F693A4E196ADF
:1019D0003E403043A0261201B1430A437021986172
:1019E0001A629A688A4309395DE080204001824288
:1019F00012D080208001824257D188684E689A6850
:101A000006432E48C9680240090232430A43802136
:101A10009A609A68C90146E007219A688A4343E0C0
:101A200088684E689A6806432448C96802400902DB
:101A300032430A439A609968772234E01E6A486804
:101A4000CA68196A1201B943F02719629969B94342
:101A50000A430A218E43311C01439A6119627021A5
:101A60009A688A4319391EE01E6A4868CA68196A6A
:101A70001201B943F02719629969B9430A430A214F
:101A80008E43311C01439A61196270219A688A431E
:101A9000293908E070219A688A43593903E0702196
:101AA0009A688A4349390A439A60012300202B70BF
:101AB0002070F0BD8800FFFFFF0FFFFFFF00FFFF5A
:101AC00002688020536883431943002051607047A7
:101AD000F0B5041C022234342578031C101C012D9F
:101AE0005AD01E1C012507271B6835362570327019
:101AF0009A686E30824348680243BA430F683A439B
:101B00009A60502820D00FD8402841D1F0201F6A79
:101B10001A6AAA431A629A698243101C0A6912015E
:101B200002439A611F6233E060281FD070282FD1D2
:101B3000C8688D689A6805431848096902402A43B5
:101B400009020A439A6023E01F6A88680A69196AD1
:101B50001201A943F02519629969A9430A430A2190
:101B60008F43391C01439A61196211E010258A687C
:101B70000869196A0003A94319629F69084D196A27
:101B80003D402843A0251201A9430A4398611A62E7
:101B90000123002033702070F0BDC046FF00FFFF1E
:101BA000FF0FFFFF021C10B534321478031C022013
:101BB000012C1AD00C2915D8081C03F015FF0713A7
:101BC00013130A1313130D13131310001B68586B10
:101BD00009E01B68986B06E01B68D86B03E01B6884
:101BE000186C00E000200023137010BD7047806A5D
:101BF00008B5031C012235331A7001F09FFB08BDA4
:101C000070477047806A08B5031C012235331A708B
:101C1000FFF7F7FF08BD7047806A08B5031C012273
:101C200035331A70FFF7F7FF08BD7047806A08B5B3
:101C3000031C012235331A70FFF7F7FF08BD704708
:101C4000806A08B5031C012235331A70FFF7F7FFCD
:101C500008BD35300078C0B2704735300078C0B26A
:101C6000704735300078C0B2704735300078C0B268
:101C7000704735300078C0B2704735300078C0B258
:101C800070470222036810B51969041C114213D071
:101C9000D968114210D0053A1A619B690432027565
:101CA0009B0702D0FFF7ADFF04E0FFF7A9FF201C60
:101CB000FFF7B1FF0023237504222368196911423D
:101CC00016D0D968114213D0093A1A610732227529
:101CD0009A69C0239B00201C1A4202D0FFF791FF93
:101CE00004E0FFF78DFF201CFFF795FF002323750D
:101CF000082223681969114214D0D968114211D001
:101D0000113A1A61DB690D322275201C9B0702D043
:101D1000FFF777FF04E0FFF773FF201CFFF77BFF5F
:101D200000232375102223681969114216D0D9683F
:101D3000114213D0213A1A6119322275DA69C0238F
:101D40009B00201C1A4202D0FFF75BFF04E0FFF764
:101D500057FF201CFFF75FFF002323750122236834
:101D60001969114207D0D968114204D0033A1A61A7
:101D7000201C01F0E3FA402223681969114207D0C0
:101D8000D968114204D0813A1A61201CFFF74DFF37
:101D900010BDC046F7B56B460E1CDD1D141C80231C
:101DA000012A00D940235B4218432870A02010214B
:101DB000C0050022FEF7BCFA0B4F291C381C01227B
:101DC000002302F0D5F8094D311C2870A2B2381C4E
:101DD000002302F0F9FA2870A0201021C00501228A
:101DE000FEF7A6FAF7BDC046E00400203405002047
:101DF000002038B52D4B1B78834255D02C4C283011
:101E0000211C0622FFF7C6FFFA206278237812020F
:101E10001A43284BC0001A80E278A17812020A43C4
:101E20005A806279217912020A439A801C88DA88E2
:101E300024B212B21218012094422BDC1C88DA88DA
:101E40001D4D12B224B25219944223DBFA255C884C
:101E50001A89ED0012B224B2521994421ADC5C883D
:101E60001A89154D12B224B25219944212DBFA2586
:101E70009C885A89ED0012B224B25219944209DCAE
:101E80009C885A8921B20C4C12B21219914200DB83
:101E90000020C0B21A88991D92B2DA805A8892B294
:101EA0001A819B889BB28B8038BDC046DE0400201F
:101EB000D80400209404002030F8FFFF37B5A02597
:101EC00001ACED0520706170281C10210022FEF786
:101ED0002FFA211C02220023054802F049F8054B85
:101EE000102118700122281CFEF722FA00203EBDA6
:101EF000E00400203405002010B50B4C0F20211CFD
:101F00000122FFF747FF2378084C492B09D16721AD
:101F10002020FFF7D3FF2120C021FFF7CFFF0123AF
:101F200000E00023237010BDD8040020DE04002050
:101F300010B5054C2378002B05D020200721FFF792
:101F4000BDFF0123237010BDDE040020F7B5041C83
:101F5000081C04F03DFB0090201C04F039FB0099A4
:101F600004F098F9294C2A492060051C04F060F817
:101F700001906060A06805F035F9061C281C0F1C54
:101F800005F030F90022002304F092FE0B1C021C25
:101F9000391C301C04F064FB05F078F90099051C2D
:101FA000A060E06804F076F91A4904F041F81A4F8D
:101FB000009B061C2061E360281C391C03F0D6FD41
:101FC000002806D1154F281C391C03F0BBFD002842
:101FD00000D0A760A168019803F0F4FD311C03F064
:101FE000F1FD0D496061051C03F0C0FD041E0BD11D
:101FF000281C002103F0A6FD031C201C002B04D18B
:10200000281C03F0C7FD00E00548FEBDA004002029
:102010000000F0420000F04100409C4600409CC699
:10202000204E000010B502680F4B86B09A4218D1BE
:1020300080210E4A8900536BA0200B435363022377
:1020400000240193C005013301A902930394FEF714
:1020500067F80C20211C221C03F022FC0C2003F04A
:1020600051FC06B010BDC0460024014000100240E3
:1020700008B50268084B9A420CD1A020074A084BC9
:10208000516BC0050B4053630221FEF701F90C2090
:1020900003F042FC08BDC04600240140001002408D
:1020A000FFFDFFFF10B50268104B86B09A421BD1AE
:1020B00080210F4A4901536BA0200B435363E02357
:1020C00000240193DE3B0293C005013B01A9039369
:1020D00004940594FEF724F81920211C221C03F017
:1020E000DFFB192003F00EFC06B010BD00300140EC
:1020F0000010024008B50268084B9A420CD1A0209B
:10210000074A084B516BC0050B405363F021FEF7A3
:10211000BFF8192003F000FC08BDC04600300140A4
:1021200000100240FFEFFFFF7FB580220368D20559
:10213000934212D10121124AA020936BC0050B4398
:10214000936304230022019301A9023B02930392AB
:1021500004920593FDF7E4FF0FE00A4A93420CD185
:102160001021074A1120936B0B43002193630A1C33
:1021700003F096FB112003F0C5FB07B000BDC0467D
:102180000010024000100040802208B50368D2050C
:1021900093420AD10121A0200A4AC005936B8B43C8
:1021A00093630331FEF774F80AE0074A934207D1BC
:1021B0001021044A1120936B8B43936303F0ACFB13
:1021C00008BDC04600100240001000407047704734
:1021D000012210B50024074B52429A629C625A6257
:1021E0005C621A621C62DA61DC6103F01CFB201C79
:1021F00010BDC0460010024010B5041C01F0D6FC12
:10220000FA21890003F0FAFB03F09CFB0120211C5A
:102210004042002203F044FB002010BD402108B5DD
:10222000074B03201A680A431A601A683E390A43AA
:102230001A60FFF7E1FF03F0F5FA002008BDC04681
:1022400000200240024A1368013313607047C04601
:10225000B8040020014B18687047C046B80400203D
:1022600013B50190FFF7F6FF041CFFF7F3FF019B86
:10227000001B9842F9D313BD0221024A13688B4315
:102280001360704710E000E00221024A13680B431C
:102290001360704710E000E0004870470000010143
:1022A000014B1868000C704700580140024B186839
:1022B0000005000D7047C046005801400121024A48
:1022C00053680B4353607047005801400121024A94
:1022D00053688B4353607047005801400221024A03
:1022E00053680B4353607047005801400221024A73
:1022F00053688B4353607047005801400421024AE1
:1023000053680B4353607047005801400421024A50
:1023100053688B435360704700580140044B5A6820
:10232000002902D01043586001E082435A60704790
:1023300000580140024B1868C0239B0018407047AA
:1023400000000140044B5A68002902D01043586035
:1023500001E082435A60704700000140044B0121B4
:102360001A6A002801D00A4300E08A431A627047C3
:10237000000001403021044B1A6A8A431A621A6A2B
:10238000104318627047C04600000140064B002809
:1023900004D002211A6AFF310A4302E0196A034A93
:1023A0000A401A627047C04600000140FEFEFFFF6F
:1023B000054B002803D01A6A04490A4302E0196A4F
:1023C000034A0A401A6270470000014001020000FF
:1023D000FEFDFFFF054B002803D01A6A04490A439B
:1023E00002E0196A034A0A401A627047000001407D
:1023F00001100000FEEFFFFF054B002803D01A6A12
:1024000004490A4302E0196A034A0A401A62704703
:102410000000014001200000FEDFFFFF054A136AB3
:10242000002803D0802109060B4301E05B005B0814
:1024300013627047000001408022C02170B5134E26
:102440005205B36B49011343114AB363136894B047
:102450000B43136018230693A023002401251B02BD
:1024600006A80F930B950D950E94109401F026F885
:10247000291C01A80195029403940494059401F089
:102480001FFA736B1D43756314B070BD00100240DA
:1024900000700040F0B58DB0FFF7C0FEFFF7CCFF35
:1024A000002101200A1C404203F0FAF9042102260F
:1024B000784B0024DA6A03250A43DA62DA6A0339C0
:1024C0000A43DA62DA6A74483243DA62C02307A93F
:1024D0001B02079308950994FDF722FEA020012313
:1024E0006E4FC00507A9079308970996FDF718FED8
:1024F0001023A0200793C0050F3B07A90893099458
:102500000A94FDF70DFEA020654BC00507A90793AF
:1025100008950994FDF704FEE523624807A907938F
:1025200008950994FDF7FCFD8723A0201B02079363
:102530000123C00507A9089309940A94FDF7F0FD4B
:1025400018235848079307A9173B089309940A943E
:10255000FDF7E6FD812353485B0007A90793089721
:102560000996FDF7DDFD211C221C072003F098F9D8
:10257000072003F0C7F9221C211C052003F090F965
:10258000052003F0BFF9484D484B80272B600123FD
:10259000FF05AB62281C03336F61EE61EB636C6077
:1025A000AC612C626C62EC622C63AC632C646C6476
:1025B000AC64EC6402F0C4FD3D4B07A9281C0793F2
:1025C00003F0BCF83B483C4B0661036082235B0090
:1025D0004360043BFF3B436180239B008361846035
:1025E000C460C46104624462846201F06AFC334ED8
:1025F000334B301CF36080239B0037603361746081
:10260000B460FDF745FF802303A95B01301C0393F1
:10261000FFF79EF9301CFDF76BFF6023082207A926
:10262000301C0793089409940A94FEF747FF20236F
:1026300001A9301C0193029403F0F8F8214F224BBA
:10264000381C3B60FA23DB007B606423BC60FB60CA
:10265000FDF71EFF202307A9381C0793089403F0F9
:10266000E5F8381CFEF796F80821301CFEF7F0F864
:10267000A0201021C0050122FDF75AFE281C211CB4
:1026800001F054FB281C03F0C7F80128FAD100F030
:1026900029FDFCE700100240000800500000111066
:1026A0000818000000040050A80500200024014084
:1026B00002000004E004002000300140700500200A
:1026C000204E0000380500200010004008B5112001
:1026D00003F06AF90148FFF7D4FA08BD3805002075
:1026E00008B5072003F060F980204000FDF73FFEA9
:1026F00008BD08B5FFF7A6FD03F071F908BD08B5E0
:102700000C2003F051F9024802F0AEFF08BDC046AC
:10271000A805002008B5192003F046F9014802F089
:1027200019FC08BDE004002008B5052003F03CF9C1
:102730000120FDF71CFE08BD8021104B49001A68DE
:102740000A431A60D9680E4A0A40DA6019680D4ACD
:102750000A4001211A609A688A439A6019680A4AF5
:102760000A401A60D968094A0A40DA6000221A61F0
:102770008022074B12059A607047C0460010024045
:102780000C40FF88F6FFF6FEFFFFFBFFFFFF02FF96
:1027900000ED00E038B50C231E4D1F4CE8681840D2
:1027A00003F022F9072525250C2525250E252525AD
:1027B00010006B68FA221B045B0F1DE0174B1EE034
:1027C000174B1CE0EB68E9689B021B0FE3181B79B1
:1027D0000902EA68890FDBB20131D20301D40F4844
:1027E00000E00F48584303F009F9206008E0802218
:1027F0006B681B045B0F013312029A40131C2360A9
:10280000221CEB680D321B061B0FD35C2268DA40DA
:10281000226038BD00100240000000200024F400B7
:1028200000127A000D488546002103E00C4B5B58EE
:10283000435004310B480C4B42189A42F6D30B4AD2
:1028400002E0002313600432094B9A42F9D3FFF7E8
:1028500073FF04F0C9FDFFF71DFEFEE70020002016
:102860001C76000800000020780400207804002076
:1028700004060020FEE70000031C30B50120002BF9
:102880006CD00222991DCA771A68354814689D6871
:102890000440D86828431D6928435D6928439D6921
:1028A0002843DD6928431D6A2843204310602D48D2
:1028B000824207D10F242C4A1068A0431060106890
:1028C0005B6846E02948824208D1F024264A106815
:1028D000A04310605B6810681B013AE02448824204
:1028E00008D1214A23481468204010605B681068B2
:1028F0001B022EE02048824208D11B4A1F48146860
:10290000204010605B6810681B0322E01C48824274
:1029100008D1154A1B481468204010605B68106895
:102920001B0416E01848824208D10F4A1748146861
:10293000204010605B6810681B050AE01448824262
:1029400009D1094A13481468204010605B68106878
:102950001B060343136001230020CB7730BDC04624
:102960000FC0FFFF08000240A80002401C00024008
:1029700030000240FFF0FFFF44000240FF0FFFFF66
:1029800058000240FFFFF0FF6C000240FFFF0FFF06
:1029900080000240FFFFFFF070B50123002800D146
:1029A000CEE0811DCC7F1A1C022C00D1C8E0036848
:1029B0001C6894431C6000241C605C609C60DC60AC
:1029C000604CA3421DD0604D0F32AB4219D05F4A1C
:1029D00093420BD05E4A93420BD05E4A93420BD097
:1029E0005D4A93420BD0802252040AE080225200BA
:1029F00007E08022520104E08022520201E080229E
:102A00005203564D6A600222A3421DD04E4E1E3222
:102A1000B34219D04D4A93420BD04D4A93420BD04A
:102A20004C4A93420BD04C4A93420BD080229204E2
:102A30000AE08022920007E08022920104E08022D6
:102A4000920201E0802292036A600822A3421DD014
:102A50003D4E7832B34219D03C4A93420BD03C4AA7
:102A600093420BD03B4A93420BD03B4A93420BD04C
:102A7000802212050AE08022120107E08022120261
:102A800004E08022120301E0802212046A60042222
:102A9000A3421DD02C4E3C32B34219D02B4A934254
:102AA0000BD02B4A93420BD02A4A93420BD02A4A8E
:102AB00093420BD08022D2040AE08022D20007E0A9
:102AC0008022D20104E08022D20201E08022D203DF
:102AD0006A60A34203D1224A0F24136805E01A4A10
:102AE000934204D1F0241E4A1368A34322E0174AFC
:102AF000934203D11A4A1B4B14681AE0144A9342BA
:102B000003D1174A184B146813E0124A934203D1B9
:102B1000134A164B14680CE00F4A934203D1104A33
:102B2000134B146805E0134A934204D10C4A124B2C
:102B3000146823401360002383630530CB77C37789
:102B4000181C70BD080002401C000240300002400A
:102B500044000240580002406C0002400000024065
:102B6000A8000240FFF0FFFFFF0FFFFFFFFFF0FF95
:102B7000FFFF0FFF80000240FFFFFFF0F0B50226CD
:102B8000471DFD7F341C012D14D00125841DFD77C8
:102B9000E67704682668AE43266063608368102B7E
:102BA00002D1A260E16001E0A160E26023681D4300
:102BB00025600024201CF0BDF0B50225471DFE7FD6
:102BC0002C1C012E21D00126841DFE77E577046898
:102BD0002568B543256063608368102B02D1A2602D
:102BE000E16001E0A160E2600222236813432360F8
:102BF000236892181343236023680432134323602D
:102C00002368073A134323600024201CF0BD0121F0
:102C1000026838B51368041C8B431360FFF71AFB76
:102C2000051C236818680123184011D0FFF712FB18
:102C3000FA23401B9B009842F3D92022A36B032068
:102C400013430022A363631D0634DA77E07703E0C1
:102C5000621D0634D077E37738BDF0B585B0041C2B
:102C60000191171C0368824E002915D10225B34239
:102C70003DD0804A1E35934239D07F4A934221D0BD
:102C80007E4A934221D07E4A934221D07D4A8025BC
:102C9000934220D0AD042AE00425B34227D0754AE0
:102CA0003C35934223D0744A934216D0734A9342E0
:102CB00016D0734A934216D0724A8025934215D09B
:102CC000ED0414E08025AD0011E08025AD010EE09B
:102CD0008025AD020BE0AD0309E08025ED0006E0A4
:102CE0008025ED0103E08025ED0200E0ED03FFF714
:102CF000B1FA0290644A23681068111C284265D119
:102D0000126803920822B3421DD05A487832834297
:102D100019D0594A93420BD0584A93420BD0584A83
:102D200093420BD0574A93420BD0802212050AE0FF
:102D30008022120107E08022120204E080221203A6
:102D400001E0802212040398104229D00822B342E5
:102D50001DD048487832834219D0474A93420BD05D
:102D6000464A93420BD0464A93420BD0454A93427F
:102D70000BD0802212050AE08022120107E0802297
:102D8000120204E08022120301E0802212040120DA
:102D90004A600422A36B0343A363A31DDA770AE00E
:102DA0007B1CA7D0002F0AD120220320A36B134342
:102DB000A363A31DD87700230534E37755E0FFF71D
:102DC00049FA029BC01AB84294D9EDE7019AA01DB6
:102DD0000534002A23D10232B3421DD0254D1E32C4
:102DE000AB4219D0244A93420BD0244A93420BD0D1
:102DF000234A93420BD0234A93420BD08022920461
:102E00000AE08022920007E08022920104E0802202
:102E1000920201E0802292034A60012322E0042210
:102E2000B3421DD0134D3C32AB4219D0124A9342EB
:102E30000BD0124A93420BD0114A93420BD0114A45
:102E400093420BD08022D2040AE08022D20007E015
:102E50008022D20104E08022D20201E08022D2034B
:102E600005234A60C3770020E07705B0F0BDC04677
:102E7000080002401C0002403000024044000240B2
:102E8000580002406C0002400000024070B5036828
:102E90008A4D8B4E041C29680822B3421DD08948F4
:102EA0007832834219D0884A93420BD0874A9342A2
:102EB0000BD0874A93420BD0864A93420BD0802294
:102EC00012050AE08022120107E08022120204E0CB
:102ED0008022120301E080221204114236D008221F
:102EE0001968114232D0196891431960B3421DD05C
:102EF000744978328B4219D0734A93420BD0734A8B
:102F000093420BD0724A93420BD0724A93420BD039
:102F1000802212050AE08022120107E080221202BC
:102F200004E08022120301E0802212046A60012280
:102F3000A36B1343A3630332A31DDA770022631D3F
:102F4000DA77636B934201D0201C98472368296885
:102F50000422B3421DD05B483C32834219D05A4A06
:102F600093420BD0594A93420BD0594A93420BD00B
:102F7000584A93420BD08022D2040AE08022D20029
:102F800007E08022D20104E08022D20201E0802208
:102F9000D203114233D004211A680A422FD01A6892
:102FA000920602D41A688A431A600422B3421DD0E2
:102FB00044493C328B4219D0434A93420BD0434A96
:102FC00093420BD0424A93420BD0424A93420BD0D9
:102FD0008022D2040AE08022D20007E08022D201BF
:102FE00004E08022D20201E08022D2036A6005223E
:102FF000A31DDA77236B002B01D0201C9847236890
:1030000029680222B3421DD02E481E32834219D0B5
:103010002D4A93420BD02D4A93420BD02C4A934217
:103020000BD02C4A93420BD0802292040AE08022DB
:10303000920007E08022920104E08022920201E0E7
:1030400080229203114238D002211A680A4234D0F9
:103050001A68920602D41A688A431A600222B3429E
:103060001DD018491E328B4219D0174A93420BD0FB
:10307000164A93420BD0164A93420BD0154A9342FC
:103080000BD0802292040AE08022920007E0802286
:10309000920104E08022920201E0802292036A60A1
:1030A0000122A36BA363A31DDA770022631DDA77E5
:1030B000E36A934201D0201C984770BD0000024093
:1030C000080002401C000240300002404400024060
:1030D000580002406C0002400630C07FC0B270470A
:1030E000806B704738B55D4B18781C1CC0B20A283D
:1030F00000D9B0E05A4D02F077FC061337535E6AF0
:1031000075818C97A20000F097F900222B68DA6392
:10311000FEF70EFF0520FFF7A3F8FEF7EDFE9CE09B
:1031200000F08AF9F4236268FF339A4205D84D4BC8
:1031300018780238C0B200F039F9FA2263689200B8
:10314000934201D9002300E0013363602B6800251E
:10315000DD63FEF74DFEA84203D0424B65601B784D
:103160002370FEF745FE78E000F066F902223D4B41
:1031700000201A7000F01AF9FA20A1684000FEF74A
:10318000E5FE0023217CE0602A68994200D1E368D3
:10319000D363FEF72DFE00285FD0002363615CE05F
:1031A00000F04AF903222F4B01201A7000F0FEF8BC
:1031B000A168C82009E000F03FF90422294B022051
:1031C0001A7000F0F3F8FA20A1688000D7E700F049
:1031D00033F90522234B03201A7000F0E7F8A168A9
:1031E0002148CCE700F028F906221E4B04201A7073
:1031F00000F0DCF8FA20A168C000C0E700F01CF97C
:103200000722184B05201A7000F0D0F8A168174863
:10321000B5E700F011F90822124B06201A7000F0F1
:10322000C5F8A1681248AAE700F006F909220D4B7B
:1032300007201A7000F0BAF8A1680E489FE700F066
:10324000FBF80A22074B08201A7000F0AFF8FA20AA
:10325000A168000193E701221A7038BDBC04002068
:103260007005002020000020DC050000C4090000DB
:10327000B80B0000AC0D000010B51D4C2378002BDE
:1032800006D1A0200121C005FDF74CF8012802D08D
:103290002378012B02D1174B1B7825E0802116489B
:1032A0004900FDF73FF801280BD12378012B08D9FD
:1032B00023780A2B05D82378022B02D02378013BF0
:1032C00011E0A0200121C005FDF72CF801280CD148
:1032D0002378012B09D923780A2B06D823780A2BC7
:1032E00003D023780133DBB223700023636110BD68
:1032F000BC040020200000200004005010B50D4C3C
:10330000201C02F089FA012813D1201C02F048F891
:10331000201C642102F07DF8201C02F07DFA0528B3
:1033200004D1201C02F08BF9034B9860201C02F0A2
:1033300054F810BDA8050020BC0400200268184BFA
:1033400010B59A422AD1174C237E0133DBB2237683
:10335000092B01D1083B05E00A2B04D1FFF7CEFF72
:10336000002323762374E1226369D2000133636171
:10337000934209D12378012B06D923780A2B03D84D
:103380000123237000236361074B62699A4205D1D0
:103390002378012B02D100232370636110BDC04646
:1033A00000100040BC040020B80B000008B508283D
:1033B0003ED802F019FB2F2C291D1A170B08050007
:1033C0001C48102106E01B48082103E0A0208021B2
:1033D000C00509020122FCF7ABFFA0208021C00537
:1033E000490022E01348102106E01248082103E0BA
:1033F000A0208021C00509020122FCF799FFA0202E
:103400008021C005890010E00A48102106E0094823
:10341000082103E0A0208021C00509020122FCF759
:1034200087FFA0208021C005C9000022FCF780FF93
:1034300008BDC0460004005038B5A0248021E40532
:10344000114D201C09020022FCF772FF281C0821E4
:103450000022FCF76DFF281C10210022FCF768FFFA
:103460008021201C49000122FCF762FF8021201CE2
:1034700089000122FCF75CFF8021201CC900012289
:10348000FCF756FF38BDC046000400508021084BB1
:1034900049001A680A431A601968064A0A4000215E
:1034A0001A60D9601868044A02401A6019617047AE
:1034B00000100240FCFFF6FEFFFFFBFFF8B50368BB
:1034C000041CDB0703D423689B074DD493E00C2333
:1034D000BE4DEA681A40082A06D0EA6813400C2B51
:1034E0000CD1EB68DB0309D52B689B03EBD580235C
:1034F00062685B029A42E6D00120D7E12B68B44EA5
:1035000033402B60FEF7A6FE071C2B68AF4A9B03D7
:1035100007D5FEF79FFEAF4BC01B9842F5D903209D
:10352000C4E1116863680E401E4316608022520297
:1035300093420CD1FEF78EFE061C2B689B03C2D46F
:10354000FEF788FEA34B801B9842F6D9E7E7FEF70B
:1035500081FE061C2B689B03B5D5FEF77BFE9D4BB9
:10356000801B9842F6D9DAE70C23984DEA681A4096
:10357000042A06D0EA6813400C2B10D1EB68DB0359
:103580000DD42B685B0702D5E368012BB4D1226907
:103590006B681102904A13400B436B602BE0E368A9
:1035A0000921002B18D02A688A4313432B60FEF7A9
:1035B00051FE061C2B6885485B0705D4FEF74AFEC2
:1035C000801B6428F6D9AAE7226943681102824A5F
:1035D00013400B4343600EE02B688B432B60FEF7D8
:1035E00039FE061C2B685B0705D5FEF733FE801BF2
:1035F0006428F7D993E72368DB064CD50C23734D79
:10360000EA681A4214D12B689B0503D5E369012BA4
:1036100000D071E76A68714B1340626A13436B60B4
:103620006B68226A1B0212061B0A13436B6032E0AE
:10363000E369002B1FD080222B68520013432B60BC
:10364000FEF708FE061C2B68604A9B0505D4FEF7B2
:1036500001FE801B6428F6D961E751685F4B0B407F
:10366000616A0B4353605368216A1B0209061B0AF7
:103670000B4353600FE02A68594B13402B60FEF751
:10368000E9FD061C2B689B0505D5FEF7E3FD801BB5
:103690006428F7D943E723681B0703D423689B06F4
:1036A00023D438E063690122484D002B0ED02B6DE6
:1036B00013432B65FEF7CEFD061C2B6D9B07EDD447
:1036C000FEF7C8FD801B6428F7D928E72B6D9343CC
:1036D0002B65FEF7BFFD061C2B6D9B07DED5FEF7A5
:1036E000B9FD801B6428F7D919E7A2690121374D7C
:1036F0003C4B002A19D0AA680A43AA606A6B11439E
:1037000069631A6A38490A431A62FEF7A3FD061C68
:10371000AB689B0703D523685B0745D518E0FEF728
:1037200099FD801B6428F3D9F9E6AA688A43AA6048
:10373000196A2E4A0A401A62FEF78CFD061CAB6815
:103740009B07E8D5FEF786FD801B6428F7D9E6E6DF
:1037500080221E4D5205AB6B254E13438022AB6376
:103760003368520013433360FEF774FD071C33685F
:10377000DB051DD52B6D1F4E33402B65FEF76AFD13
:10378000071C2B6D114A9B0518D4116DA3680E40C0
:103790001E43166580225200934234D1FEF75AFD33
:1037A000061C2B6D9B0527D5A26A002A38D160E044
:1037B000FEF750FDC01B6428D9D9B0E6FEF74AFDDC
:1037C000044BC01B9842DCD9A9E6C0460010024059
:1037D000FFFFFAFF88130000FFE0FFFFFF1FFFFF5E
:1037E000FFFEFFFF0000014001200000FEDFFFFFA1
:1037F00000700040FFFAFFFFFEF72CFD2C4B801BF2
:103800009842CED98BE6FEF725FD061C2B6D9B0555
:10381000CAD5FEF71FFD264B801B9842F6D97EE6DF
:103820000C23244D0120E9680B400C2B3ED0224B89
:10383000022A2CD12A6813402B60FEF70BFD061CD0
:103840002B681C499B0116D4226B606BCB6810431C
:10385000E26A1043194A134080220343CB600B688D
:10386000520413430B60FEF7F5FC041C2B689B010C
:1038700007D500201AE0FEF7EDFC801B6428DFD995
:103880004DE6FEF7E7FC001B6428EFD947E62A68FF
:1038900013402B60FEF7DEFC041C2B689B01E8D56F
:1038A000FEF7D8FC001B6428F7D938E6F8BDC046FF
:1038B0008813000000100240FFFFFFFEFFFF02FF21
:1038C0000123F7B57D4A0E1C1168041C1940171C12
:1038D0008E4274D9116899433143116012681340C4
:1038E000B34201D00120E7E00268930706D5F0203B
:1038F0007349CB688343A0680343CB60D3070BD4E1
:103900002268530700D4C9E06D496E4BC868034074
:10391000E0680343CB60C1E0694D63682A68022B0D
:1039200002D192030CD4DDE7002B02D1920507D41B
:10393000D8E7032B02D1920102D4D3E75207D1D5A5
:103940000321EA688A431343EB60FEF783FC636854
:10395000061C022B0CD10C23EA681340082BCFD095
:10396000FEF778FC584B801B9842F4D90320A3E063
:10397000032B0BD10C23EA6813400C2BC0D0FEF7AD
:1039800069FC514B801B9842F4D9EFE7002B10D112
:103990000C23EA681A42B3D0FEF75CFC4A4B801B4A
:1039A0009842F5D9E2E7FEF755FC474B801B984259
:1039B000DCD80C23EA681340042BF4D1A0E702689A
:1039C000930706D5F0203E49CB688343A0680343A4
:1039D000CB60D3070AD401223B68934333433B6057
:1039E0003B681A40B24200D07CE789E7344D6368F7
:1039F0002A68022B02D192030DD473E7002B02D167
:103A0000920508D46EE7032B02D1920103D469E733
:103A1000520700D466E70321EA688A431343EB6048
:103A2000FEF718FC63680190022B0CD10C23EA68A6
:103A30001340082BCFD0FEF70DFC019BC01A224B80
:103A40009842F3D992E7032B0CD10C23EA68134078
:103A50000C2BC0D0FEF7FEFB019BC01A1A4B9842FC
:103A6000F3D983E7002B13D10C23EA681A42B2D0B2
:103A7000FEF7F0FB019BC01A134B9842F4D975E78F
:103A8000FEF7E8FB019BC01A0F4B984200D96DE787
:103A90000C23EA681340042BF2D19CE7130707D5E7
:103AA00007482169C368094AC90013400B43C36032
:103AB0000320FEF7A1FB0020FEBDC046002002400F
:103AC00000100240FFF8FFFF88130000FFC7FFFF50
:103AD00070B5161C0122114C86B0E36A0D1C13430D
:103AE000E3628023002801D15B0000E09B0001938A
:103AF0000223A0200293013304930023C00501A9EF
:103B000003930593FCF70CFBE268054B2D061A4066
:103B100032431543E56006B070BDC0460010024058
:103B2000FFFFFF808021034A090313680B431360E2
:103B30007047C04600100240164A08B5536816493F
:103B40001B045B0F9B0058580C23D1680B40082BBB
:103B50001CD00C2B06D0042B1BD11368DB0617D40A
:103B60000E4816E0D3680E48D1689B021B0FC35C59
:103B70000902D268890FDBB20131D20301D40748B0
:103B800000E00848584301F039FF02E0054800E032
:103B9000054808BD00100240787500080024F400B4
:103BA0002100002000127A0000093D0008B5FFF74F
:103BB000C3FF054B054ADB6809321B061B0FD35CAC
:103BC000D840034B186008BD0010024021000020BF
:103BD0000000002008B5FFF7E9FF044B044ADB684A
:103BE00009325B055B0FD35CD84008BD0010024072
:103BF0002100002008B5FFF7D9FF044B044ADB6819
:103C000009329B045B0FD35CD84008BD0010024012
:103C1000210000203F2303602B4B1A68520302D57A
:103C2000A022D20206E080211A6849020A4001D08F
:103C3000416000E042608022196852000A4000D0D2
:103C40000122C2611A68120E02625A681204520FEF
:103C5000426201229968114001D0826100E08161D5
:103C600019680A4000D00122C2605A68D204D20EFC
:103C700002611A6D520502D5A022D20007E0802110
:103C8000114A4900126D0A4001D0816000E0826053
:103C900001211A6D0A4001D0416100E042611A68B9
:103CA000D20101D5022200E0012282628022D9687D
:103CB00052020A40C262DA689202120F0263DB68A3
:103CC0001B029B0F43637047001002400F23032227
:103CD00003600D4B10B5DC6822404260F022DC68C6
:103CE00022408260E022DC68D2002240C260DA68B2
:103CF000E0239B011340DB080361044B1A68012396
:103D000013400B6010BDC04600100240002002406E
:103D1000704738B58025044C6D0063692B4202D092
:103D2000FFF7F6FFA56138BD00100240F8B5051C8D
:103D300054352A780223012A44D0012203262A700E
:103D40000268041C91683140012909D08021226851
:103D5000090693680B439360FEF77CFA061C08E0A3
:103D6000106808420AD1F1E7FEF774FA801B0A28AE
:103D700019D823689B68002BF6DB1AE005209768AA
:103D80003840012818D19068034393601660FEF70D
:103D900061FA061C23689B68DB07D7D5FEF75AFA41
:103DA000801B0A28F6D903230022553423702A7079
:103DB00008E000232B7005E0042355342370002312
:103DC0002B700B1C181CF8BD0368B43318687F23D4
:103DD0001840704730B5041C54342178022301295F
:103DE0001FD00321013B237003689D6829400129EE
:103DF00002D11D680D4206D1042355300370033BE8
:103E0000002222700DE004219D682940F4D17F2515
:103E1000B4331868A8431860186802431A600B1C72
:103E2000EEE7181C30BD0000F7B51D1C041C0E1C6D
:103E30000192FEF70FFA019B071C002B3BD1226871
:103E400093683340B3420FD06B1CF9D0002D0FD0D4
:103E5000FEF700FAC01BA842F1D909E06B1C05D19E
:103E600093683340B342F9D0002026E0002D1DD1E5
:103E7000E02123685A688A435A601A68A0398A4345
:103E80001A608022A06A9201904206D11A680B49FA
:103E9000114019601A6802431A60231C0122513331
:103EA0001A70002350342370032006E0FEF7D2F985
:103EB000C01BA842DCD82268D2E7FEBDFFDFFFFFAF
:103EC000704738B50123002834D0051C51352B78B4
:103ED000041C002B01D1FEF7E5F8022340212B70D2
:103EE0002368A0691A688A431A606168A2680A4355
:103EF000E1680A4321690A4361690A43E1690A43A7
:103F0000216A0A43A16A0A438021890001400A43C9
:103F10001A600422000C1040626A1043E26A586082
:103F20001A61D969044A52340A40DA610023012235
:103F300023702A70181C38BDFFF7FFFF704738B593
:103F4000041C0120002C12D0251C022340212268D1
:103F500051352B701368201C8B431360FEF7CAF891
:103F6000231C00205233503418702870207038BD44
:103F7000F7B5071C513701971E1C3B78041CDBB2B8
:103F80000220012B00D0B0E0181C002900D1ACE0C9
:103F9000002A00D1A9E0251C5035287884466746C0
:103FA0000220012F00D1A0E001982B701133037083
:103FB000002302352B70E364A364A387E387A36A1D
:103FC00021639C468023A286E2869B019C4509D101
:103FD00023681868071C4548384067461860186809
:103FE00007431F608023A0681B02984205D18027E9
:103FF0002068FF0103683B4303604027236818687B
:10400000384202D1186807431F60E7686068002FD4
:104010001FD1002801D0012A17D1481C206309783C
:10402000013AD960E28610E0201C02210022331CF4
:10403000FFF7FAFE002842D1236B2268591C216346
:104040001B78D360E38E013BE386E38E002BEBD13C
:104050001EE0002801D0012A17D10888013A023158
:10406000D8602163E28610E0201C02210022331C6C
:10407000FFF7DAFE002822D1236B22681988023369
:10408000D1602363E38E013BE386E38E002BEBD10B
:104090008023A26A9B019A4205D1802122684901AE
:1040A00013680B431360201C02210022331CFFF70E
:1040B000BBFE002805D020222B7813432B70032051
:1040C00013E0201C80210122331CFFF7ADFE0028E5
:1040D000F1D1A368002B02D12368DA689B68012321
:1040E000019A5034137000232370FEBDFFDFFFFFE1
:1040F000F0B5061C5136357885B0EDB2041C012DA3
:1041000003D00220222D00D05AE10120002900D145
:1041100056E1002A00D153E1002B00D150E1251CCB
:1041200050352F780018012F00D149E1013828704F
:104130003078012801D131303070271C00205237EF
:104140003870A263A26AA06401928022E0640198A0
:10415000A387E3872163A386E3869201904208D177
:104160002268984F10680740176017680198074346
:104170001760402022681768074202D11768384349
:104180001060802000018446E0686768604567D160
:10419000002F05D082204000874207D1012B05D196
:1041A0000F88013B0231D7602163E386E38E002B49
:1041B00034D1802301999B01994204D18021136855
:1041C00049010B431360201C012100223BE0201C0D
:1041D000022100220A9BFFF727FE002800D0D1E031
:1041E000236B226819880233D1602363E38E013B7D
:1041F0009BB2E386002B15D0201C012100220A9BD4
:10420000FFF712FE002800D0BCE02268A36BD26842
:104210001A800233A363E38F013BE387E38E002B15
:10422000D5D10AE08023A16A9B019942E4D1802183
:10423000136849010B431360DEE76268002A00D06F
:104240007DE0201C01210A9BFFF7EEFD002800D035
:1042500098E02268A36BD2681A800233A3636BE0F4
:10426000002F05D082204000874207D1012B05D1C5
:104270004F1C27630978013BD160E386E38E002B56
:104280003BD1802301999B01994204D1802113687D
:1042900049010B431360201C012100220A9BFFF7F8
:1042A000C3FD00286ED12368A26BDB68137043E066
:1042B000201C022100220A9BFFF7B6FD002861D1D5
:1042C000236B2268591C21631B78D360E38E013B6A
:1042D0009BB2E386002B14D0201C012100220A9BF4
:1042E000FFF7A2FD00284DD1A36B5A1CA2632268E0
:1042F000D2681A70E38F013BE387E38E002BD7D19E
:104300000AE08023A16A9B019942E5D180211368CC
:1043100049010B431360DFE76268002A0FD1201CBC
:1043200001210A9BFFF780FD00282BD1A36B5A1CAB
:10433000A2632268D2681A70E38F013BE38780236F
:10434000A26A9B019A4210D1201C012100220A9BE3
:10435000FFF76AFD002803D05234237802220FE0D1
:10436000236802AADB689BB2D380201C8021012233
:104370000A9BFFF759FD002806D0202252342378EB
:104380001343237003201BE0012180273170236831
:10439000A66A9A68BF01BE4210D1D2060ED5022786
:1043A000523422783A4322701C68064A14401C603A
:1043B0001A6832431A602870081C01E000232B7031
:1043C00005B0F0BDFFDFFFFFF0B51E1C031C89B078
:1043D0005133039204931B78041CDBB28C460225F4
:1043E000012B00D0EDE01D1C002900D1E9E0039A6B
:1043F000002A00D1E5E0503002780135012A00D1D1
:10440000DFE0049A0370213313706A46271C0023EF
:10441000928952373B70A2876A46A364E364A386FD
:10442000E38680239289A568A163E2871B029D42EF
:1044300004D12268644B11680B401360A36A059392
:104440008023059A9B019A4209D123681A68111C9E
:104450005E4A0A401A601A6805991143196082235E
:1044600062685B009A420AD1002D08D1057061464E
:104470000096201C6246039BFFF73AFE9DE0402118
:1044800023681A680A4202D11A680A431A60E3686C
:10449000002B25D1E38F012B25D9201C01210022DF
:1044A000331CFFF7C1FC002852D1A36B5A1CA26336
:1044B0002268D2681A70E38F013BE387EAE7201C89
:1044C00001210022331CFFF7AFFC002840D12268F5
:1044D000A36BD2681A800233A363E38F013BE387A7
:1044E000E38F012BEBD88023A26A9B019A4205D16E
:1044F00080212268490113680B431360201C0121AD
:104500000022331CFFF790FC051E21D1E1682268D0
:10451000A36B002904D1D268591CA1631A7003E06F
:10452000D2681A800233A363E38FA26A013BE38758
:1045300080239B019A4214D1201C01210022331CAC
:10454000FFF772FC002805D002223B7813433B7032
:10455000032536E00E22236804A9DB6852189BB2BB
:104560001380822261682368520091420CD180211D
:10457000A26809028A4203D08021C9008A4203D17D
:1045800040211A688A431A6001208021049AA66A91
:1045900010709A68503489018E4210D1D2060ED51F
:1045A00002213A780A433A701968084A11401960A2
:1045B0001A6832431A6000232370051C01E00023AF
:1045C0002370281C09B0F0BDFFBFFFFFFFDFFFFF16
:1045D000F0B5061C51363378041CDBB20220012BE7
:1045E00040D1181C00293DD0002A3BD0251C503555
:1045F0002F780130012F35D02B70201C11333370F0
:10460000002352300370A286E28680221648A364FB
:10461000E064A068A387E3872163236812029042C5
:1046200004D180211A68C9010A431A608022A46A51
:104630009201944206D11A680C49114019601A6817
:1046400022431A605A688021002800D0A0210A4322
:10465000002040215A601A6828700A4202D11A6864
:104660000A431A60F0BDC046134B0008FFDFFFFF8E
:10467000F0B5061C51363578041CEDB2012D0BD077
:1046800082277F00BC4667680220674540D1A76843
:10469000002F3DD1222D3BD10120002938D0002A06
:1046A00036D0002B34D0251C50352F780018012F20
:1046B0002ED0013828703078222801D03220307076
:1046C000201C002652300670A2638022114821630C
:1046D000E0641149A06AA386E386A387E387A16407
:1046E00023689201904206D11A680C491140196062
:1046F0001A6802431A60E02100205A680A435A608F
:104700001A68A03928700A4202D11A680A431A604E
:10471000F0BDC046134B0008094D0008FFDFFFFF46
:10472000F8B5061C5136131C3278041CD2B20D1C8D
:104730000220012A4CD1101C002949D0002B47D05F
:10474000211C50310F780130012F41D00A70201CFC
:10475000213232700022523002701E48E264A0649E
:104760008020A286E286A268A563A387E387000271
:10477000824205D12268184B1068034013600DE097
:10478000002A0BD1822066684000864206D10A705A
:10479000201C291C2A1CFFF76BFF19E08022A56A48
:1047A00023689201954206D11A680C48104018609F
:1047B0001A682A431A6060205A68024300205A602F
:1047C000087040211A680A4202D11A680A431A6026
:1047D000F8BDC046BD4C0008FFBFFFFFFFDFFFFF75
:1047E000F8B5061C5136131C3278041CD2B20220D4
:1047F000012A47D1101C002944D0002B42D0251C8F
:1048000050352F780130012F3CD02A70201C1132F6
:1048100032700022523002708020A668E264A264E6
:10482000A287E2872163A386E3862268000286428C
:1048300004D180261068F601304310608020A76AFA
:104840008001874206D110680F4E0640166010683E
:1048500038431060206C0D4E0C3206630C4EC6625D
:104860000C4E4663FEF7A8F90221002023685A681F
:104870000A435A601A683E3128700A4202D11A6807
:104880000A431A60F8BDC046FFDFFFFFEF4A000889
:104890005D4D0008394D0008F8B5061C51363578D5
:1048A000041CEDB2012D0BD082277F00BC46676847
:1048B0000220674560D1A768002F5DD1222D5BD112
:1048C0000120002958D0002A56D0002B54D0251C96
:1048D00050352F780018012F4ED0013828703078CD
:1048E000222801D032203070271C00205237387027
:1048F0002163A16AA064E0648C468020A386E386DD
:10490000A263A387E38721688001844507D10F68EC
:104910001A4807400F606746086807430F603678FB
:10492000606C222E03D1164E0663164E02E0164E20
:104930000663164EC662164E0C314663FEF73CF90E
:1049400001212268206C53680B43536000234663A7
:10495000C3620C32E38E216BFEF72EF940212368EF
:104960001A680A4202D11A680A431A60022100201A
:104970005A680A435A602870F8BDC046FFDFFFFF3F
:10498000FB4A0008D14D0008074B00088F4E000875
:10499000394D0008F8B50E1C011C5131131C0A7862
:1049A000041CD2B20220012A55D1101C002E52D074
:1049B000002B50D0251C50352F780130012F4AD0C4
:1049C0002A7021320A7000224A708021A264E264B7
:1049D000A286E286A268A663A387E38709028A42C9
:1049E00005D121681C4A086802400A600DE0002ACF
:1049F0000BD1822160684900884206D12A70201CB0
:104A0000311C321CFFF748FF25E08022A76A21688D
:104A10009201974206D10A681048104008600A685F
:104A20003A430A60606C0E4A0C3102630D4AC2625E
:104A30000D4A4263321CFEF7BFF8012100202368B3
:104A40005A680A435A601A683F3128700A4202D1F4
:104A50001A680A431A60F8BDFFBFFFFFFFDFFFFFC0
:104A6000FB4A0008D14D0008394D0008011C5031A7
:104A70000A78031C0220012A09D01B685A68824365
:104A80005A605A680138824300205A6008707047A3
:104A9000011C50310A780223012A09D002685068AB
:104AA00003430120536053680343536000230B709A
:104AB000181C704710B5041C006C002801D0FEF7CC
:104AC000A6F8606C002801D0FEF7A1F80221236847
:104AD00051345A6800208A435A605A6801398A431F
:104AE0005A60217010BD704770477047704708B515
:104AF000806AFFF7FBFF08BD704708B5806AFFF7C3
:104B0000FBFF08BD704708B5806AFFF7FBFF08BDD3
:104B10007047C16838B50268036B002904D1591C7D
:104B200001631B78D36003E019880233D16003630B
:104B3000C38E013B9BB2C386002B4BD18023816A7D
:104B40009B01994204D18021136849010B431360F2
:104B5000022100226423041CFFF766F9002805D017
:104B6000221C2021523213780B43137080212368BA
:104B70005A688A435A605A6852062BD420255A68CC
:104B8000201CAA435A6064230122FFF74DF9231C1D
:104B90005233002802D01A782A431A70A268002AD9
:104BA00002D12268D16892681A78231C5133002AF6
:104BB0000BD1197801321A70201C322902D1FFF76B
:104BC00094FF07E0FFF78FFF04E00122201C1A701A
:104BD000FFF79EFF38BD8023826A13B59B01041C3A
:104BE0009A4232D1012100226423FFF71DF90028E7
:104BF00005D0221C2021523213780B4313706A46D1
:104C000001212368201CDB689BB2D3800A1C64232B
:104C1000FFF70AF9002805D0221C20215232137810
:104C20000B43137023689A68D2060ED5211C02200C
:104C300052310A7802430A7019681F4A0A408021DB
:104C40001A601A6889010A431A60402123685A6869
:104C50008A435A605A6812062CD45A6820398A430B
:104C60005A6082226168520091420CD18021A26870
:104C700009028A4203D08021C9008A4203D140211F
:104C80001A688A431A60231C52331A78013B002A9F
:104C90000BD1197801321A70201C322902D1FFF78A
:104CA00024FF07E0FFF720FF04E00122201C1A7018
:104CB000FFF72EFF13BDC046FFDFFFFFC16808B539
:104CC0000268836B002904D1D268591C81631A7071
:104CD00003E0D2681A8002338363C38F013B9BB227
:104CE000C387012B0BD18023826A9B019A420AD190
:104CF00080210268490113680B43136003E0002B15
:104D000001D1FFF768FF08BDC16808B50268836B71
:104D1000002904D1D268591C81631A7003E0D2685B
:104D20001A8002338363C38F013B9BB2C387002B7E
:104D300001D1FFF750FF08BD08B50023806A0122AA
:104D4000C386C387031C51331A70021C10215232D0
:104D500013780B431370FFF7DBFE08BD70B5846A50
:104D60002026251C036852351A68324020D1201CA9
:104D700002216423FFF758F8002802D02B781E4345
:104D80002E7002212268201C53688B4353607E31B1
:104D900001226423FFF748F8002803D020222B7853
:104DA00013432B700023E386231C012251331A7016
:104DB000A368002B02D12368DA689B682B78201C3B
:104DC000002B02D0FFF7A4FE01E0FFF78CFE70BDC0
:104DD000036837B51B68846A9B0654D482226168D5
:104DE0002368520091420CD18021A26809028A42B4
:104DF00003D08021C9008A4203D140211A688A4326
:104E00001A60012102205A68251C8A435A605A6898
:104E1000523582435A60231C00225133E2871970B5
:104E20008023A06A9B01984226D1201C6423FEF7B0
:104E3000FBFF002803D020222B7813432B706A46F7
:104E400001212368201CDB689BB2D3800A1C6423E9
:104E5000FEF7EAFF002803D020222B7813432B70A3
:104E6000102123689A680A4206D002202A78024359
:104E70002A709A688A439A602B78201C002B03D0F2
:104E8000FFF746FE02E0201CFFF72EFE37BD73B58C
:104E900020260368846A1B68334257D1251C80236F
:104EA000A26A52359B019A4221D10121201C0A1C81
:104EB0006423FEF7B9FF021E09D1201C01216423DF
:104EC000FEF7B2FF002802D02B7833432B706946DF
:104ED0002368DA6892B2CA8010219A680A4206D022
:104EE00002202A7802432A709A688A439A60201C1A
:104EF000022100226423FEF797FF002803D020221E
:104F00002B7813432B7002212268201C53688B439B
:104F100053607E3101226423FEF786FF002803D010
:104F200020222B7813432B7001222168201C4B6810
:104F300093434B600023E386E387231C51331A70AD
:104F40002B78002B03D0FFF7E3FD02E0201CFFF7D6
:104F5000CCFD73BD38B503689A685C689968D20760
:104F600006D54022144203D0114201D1836C06E0E1
:104F700099685A68890704D5120602D5C36C984708
:104F80003AE05A68920637D5021C102499685232CA
:104F9000214206D002251178294311709968A14356
:104FA00099609968890608D5012411782143117008
:104FB000996819683F34A1431960996849060AD570
:104FC000011C51310978122905D00424117821439C
:104FD0001170D96899689968C90504D508241178B1
:104FE000214311709B681378002B05D0031C01220C
:104FF00051331A70FFF78CFD38BD51300078C0B2C4
:10500000704752300078C0B27047C0460322036830
:1050100070B599680A40012A04D11968114201D07B
:10502000002029E09968154A114208D0031C042287
:10503000012555331A70836D2B4383651BE00121D5
:105040009A68041C0A439A60FDF704F9E36C061C95
:10505000012BE5D0012523681B682B42E0D1FDF729
:10506000F9F8801B0A28F5D9231C042255331A703D
:10507000A36D2B43A365281C70BDC046170000809C
:1050800070B50324026893682340012B01D00020EF
:105090002CE011681942FAD00521956829400129B0
:1050A00009D102219368051C0B4393601460FDF73E
:1050B000D1F8061C08E0021C042155321170826DE3
:1050C0001A438265181C11E001242B689B68234257
:1050D000DDD0FDF7BFF8801B0A28F5D92B1C042270
:1050E000201C55331A70AB6D2343AB6570BD042291
:1050F000036870B59968114201D100201EE09968DB
:10510000114206D09A68920703D410219A680A4384
:105110009A60041CFDF79EF8061C042523689B6812
:105120002B42EAD0FDF796F8801B0A28F5D9231CFC
:10513000012055331D70A36D0343A36570BD7047F7
:10514000F8B50123002800D1B7E0051C55352B78B0
:10515000041C002B01D1FCF765FF02232B70C02338
:1051600061691B065648CE182268564B064207D185
:1051700010698000800810611069014311610AE024
:1051800010698000800810611E684F483040186028
:1051900018680143196018684C4901401960A06CF7
:1051A0001968400601431960802391685B05194026
:1051B00012D1032693683340012B09D08021226845
:1051C000490593680A200B439360FDF749F803E013
:1051D0001068184250D1F1E723683D4AD968266B20
:1051E0000A40DA60A169DA68A06A0A43616A0A4380
:1051F000216A0A43216C32430A4341030A43A16BEB
:1052000049000A43616C89030A43E16CC9030A43FC
:10521000DA60002E03D0DA68616B0A43DA60E26A72
:10522000012A06D1002804D18021DA6849020A4304
:10523000DA60606801280ED11969264A11401961A7
:105240001969A2681143E268114322691143196187
:105250001A69024302E001211A698A4307211A618F
:105260005A698A435A615A69E1690A435A610023BB
:105270000122A3652A7020E00520976838400128A4
:1052800008D1022193680B4393601660FCF7E2FF9C
:10529000061C04E0042254342A7021700DE02368B7
:1052A0009B68DB078AD5FCF7D5FF801B0A28F6D957
:1052B0000323002254342B702270181CF8BDC04602
:1052C000FFFFFFBF08270140FFFFC3FFFFFFFFFDF8
:1052D0000102FEFF03FCFF7F7047F8B501240028A0
:1052E0004FD0061C02225536036832709968490770
:1052F00006D59968114203D110219A680A439A6031
:10530000051CFCF7A7FF071C04222B689C681440AF
:105310000AD0FCF79FFFC01B0A28F5D903240023FD
:10532000543534702B702CE002219A68281C0A43F3
:105330009A6003221A605968134A0A405A60134A55
:105340001A609968124A0A409A60D968114A0A405C
:10535000DA601969104A0A4007211A615A698A43BA
:105360005A61196A0D4A0A407F211A62B4331A68D9
:105370008A431A601A688A431A60FCF779FEAC65A2
:105380003470201CF8BDC04660F7FFFF9F08000086
:10539000FFFFFFEF00023E8302FCFF3F00F000F042
:1053A00038B5051C54352A780223012A13D0013B55
:1053B0002B70031C122255331A7000238365041CC2
:1053C000FFF724FE012804D00421226893680B43D0
:1053D000936000232B70181C38BD70B5051C543524
:1053E0002B78041C0220012B12D00126201C2E70C9
:1053F000FFF77DFEB04201D1012009E0201C5534A9
:10540000FFF73EFE2378042BF6D00020267028708C
:1054100070BDF8B5C66B041C0D1C082E00D00C2600
:10542000FCF718FF071C23681A68324211D16A1C66
:10543000FAD0002D07D1231C032055331870002308
:10544000543423700EE0FCF705FFC01BA842EAD9D4
:10545000F1E7626C002A01D10C321A6005230020AA
:1054600055342370F8BDF8B5041C0D1C161CFCF750
:10547000F1FE071C23681A682A40AA4211D0721C48
:10548000F9D0002E07D1231C0320553318700023B8
:105490005434237011E0FCF7DDFEC01BB042E9D9A3
:1054A000F1E75534802D03D1062222701D6003E000
:1054B000042222700C321A600020F8BD38B5051C99
:1054C00054352A780223012A2AD0013B2B70031C71
:1054D000122255331A7000238365041CFFF796FDD2
:1054E000031E012B1CD010212368E06B5A680A436D
:1054F0005A60082806D104225968914359605A68B5
:10550000024306E008215A688A435A605A680439FF
:105510000A4304215A609A680A439A6000232B7058
:10552000181C38BD70B5051C54352A780223012A91
:1055300017D001262E70041CFFF7D9FDB04201D10F
:1055400001230EE01C212268201C536855348B4334
:105550005360FFF795FD2378042BF1D000232670CC
:105560002B70181C70BDF7B5051C54352C78022320
:10557000012C29D0031C01270192122255332F70D0
:105580001A70002383650E1C041CFFF73FFDB84210
:1055900018D010222168206DCB681F430B4BCF60C1
:1055A000C3620B4B03630B4B43634B6813434B606A
:1055B000321C4031019BFDF7FFFA042122689368F9
:1055C0000B43936000232B70181CFEBD4756000848
:1055D0005B56000823570008F7B5061C543633788D
:1055E0000225012B29D001273770041CFFF77FFD0E
:1055F000B84201D1012520E02268206DD368BB4369
:10560000D360FDF704FB231C5533051E019305D021
:105610000423019A137000233370EBE710212268F2
:10562000201C53688B435360FFF72AFD019B1B78B6
:10563000042BDFD0019B1F703570281CFEBD036852
:10564000186C70477047806A08B5031C05225533F3
:105650001A70FFF7F7FF08BD704708B5806AFFF7BB
:10566000FBFF08BD70477047042238B50368041C6F
:105670001968114202D05968114206D108221968EE
:10568000114228D05968114225D0221C05215532DB
:105690001170A16A002915D1216B002912D19868D7
:1056A000043108420DD1E26B082A05D11968114274
:1056B00008D05A681C2101E014215A688A435A60B4
:1056C00000E01170201CFFF7BDFF636C012B02D0BE
:1056D0000C2223681A60802523681A682A420BD09E
:1056E0005B682B4208D0231C062255331A70201CFD
:1056F000FFF7B8FF23681D60102223681968114264
:105700000ED0596811420BD0211C0420553108706D
:10571000A16D03380143A165201C1A60FFF7A3FFA8
:1057200038BD806A08B5031C042255331A70836D96
:10573000023A13438365FFF796FF08BD021C10B5BC
:1057400054321478031C0220012C22D01C680B68F0
:10575000013810705903A06A490B0143A162590333
:1057600005D580240B482404016821430160990376
:1057700005D580240748E403016821430160DB0369
:1057800005D58020034940040B6803430B600020CB
:10579000107010BD0827014030B5041C5434227825
:1057A000031C0220012A31D0012222708A681B6862
:1057B0007E30012A02D15A68024301E05A688243CE
:1057C0005A60D868124A4D680240DA60DA680868A0
:1057D0001043F822D2052A400243DA601822D86822
:1057E000CD68104080088540281CDD6809692A4082
:1057F000920891401D6A0A1C06490004294019625A
:1058000018620020196A0A431A62207030BDC0462F
:10581000FFFF3F8300F000F055300078C0B27047C2
:10582000806D7047704770477047704730B5041CF3
:1058300034342278031C0220012A17D01D1C1B6857
:10584000353528705A686E3082435A605A68086845
:10585000024380205A609A6882439A6098684A6836
:1058600002439A60002001232B70207030BD30B5B8
:10587000041C34342278031C0220012A0ED01D1C83
:105880001B6835352870186D0A0C02401A651A6DB0
:1058900000201143196501232B70207030BD0000DA
:1058A00070B58901002815DA0F23C0B20340083B08
:1058B000124A9B0803249B009B18FF222040A04013
:1058C000141C8440DD691140A54381402A1C0A4311
:1058D000DA6112E084080A4B0326A400E418FF23CF
:1058E0003040B0401E1CC0258640AD0062591940B2
:1058F000B2438140131C0B43635170BD00ED00E0C7
:1059000000E100E01F2318401E3B8340181C014BA0
:105910001860704700E100E01F2318401E3B8340E1
:10592000181C014BD867704704E100E0BFF34F8FAC
:10593000024A034BDA60BFF34F8FFEE70400FA051B
:1059400000ED00E0094A431E012093420DD8C0201B
:10595000074A084953600B6A00061B021B0A0343EF
:105960000B6200200723906013607047FFFFFF0069
:1059700010E000E000ED00E01F2318401E3B8340D4
:10598000181C014B58607047FCE100E0054B021CFD
:1059900059681F231A401E3B9340181C0840431EA1
:1059A00098417047FCE100E01F2318401E3B8340F4
:1059B000181CC023014A5B00D050704700E100E092
:1059C000054B1A68042802D11043186002E0042134
:1059D0008A431A607047C04610E000E0704708B57F
:1059E000FFF7FCFF08BDC04602B4714649084900F4
:1059F000095C49008E4402BC7047C046002243083F
:105A00008B4274D303098B425FD3030A8B4244D386
:105A1000030B8B4228D3030C8B420DD3FF220902C8
:105A200012BA030C8B4202D31212090265D0030B87
:105A30008B4219D300E0090AC30B8B4201D3CB037D
:105A4000C01A5241830B8B4201D38B03C01A5241BF
:105A5000430B8B4201D34B03C01A5241030B8B42C1
:105A600001D30B03C01A5241C30A8B4201D3CB02AC
:105A7000C01A5241830A8B4201D38B02C01A524191
:105A8000430A8B4201D34B02C01A5241030A8B4294
:105A900001D30B02C01A5241CDD2C3098B4201D3AC
:105AA000CB01C01A524183098B4201D38B01C01A2A
:105AB000524143098B4201D34B01C01A52410309A1
:105AC0008B4201D30B01C01A5241C3088B4201D350
:105AD000CB00C01A524183088B4201D38B00C01AFD
