:020000040800F2
:1000000000200020E12C0008312D0008312D0008CF
:1000100000000000000000000000000000000000E0
:10002000000000000000000000000000312D00086A
:10003000312D000800000000312D0008812B000840
:10004000312D0008312D0008312D0008312D000818
:10005000312D0008B52B0008312D00086D2B00084C
:1000600000000000312D0008312D0008312D00085E
:100070008D2B0008312D000800000000312D0008F4
:1000800000000000592B00080000000000000000E4
:10009000312D000800000000312D0008312D00082E
:1000A000312D0008A12B0008312D0008312D00084A
:1000B000312D0008312D0008000000000000000074
:1000C00010B5064C2378002B07D1054B002B02D02E
:1000D000044800E000BF0123237010BD7804002015
:1000E00000000000D87C000808B5084B002B03D0A6
:1000F0000748084900E000BF07480368002B00D10B
:1001000008BD064B002BFBD09847F9E70000000024
:10011000D87C00087C04002074040020000000004B
:10012000F0B55F4656464D464446F0B485B00025CE
:100130000023012294460F3291468346664A5A4470
:10014000141C624262410524A21A039201901E1CF3
:1001500062469A400C681440944200D0B0E04A686D
:100160004F46BA43022A18D1DA089200871802973C
:100170003A6A924607221A40920090460F2797400B
:10018000BB4657465A469743BA460F694246974080
:100190003A1C57463A43029F3A624A684F46BA436E
:1001A000013A012A14D882680327AF40BA43171CCA
:1001B000CA68AA403A4382604268A24390464A68AD
:1001C0004F463A401209B240161C42463243426042
:1001D00006680322171CAF40FF433E40B2464E68FC
:1001E0001640AE40524632430260C2683A408E68C2
:1001F000AE403243C2604A68D20061D5374E726B5E
:1002000067463A4372639A089200354EB04690446E
:1002100042469268924603221A4092001026764285
:10022000964057463E40A027FF05B84211D02D4FBB
:10023000BA46019F57450FD02B4FBA46019F5745ED
:100240000CD02A4FBA46019F57450AD0039FBA46A1
:1002500009E00027BA4606E0E24604E00227BA4673
:1002600001E00327BA46574697403A1C32434646B8
:10027000B2601F4A1268E6434F68FF0301D4324060
:1002800000E022431A4F3A607A684F68BF0301D4F6
:10029000324000E02243164F7A60BA684F68FF028E
:1002A00001D4324000E02243114FBA60FA684F682F
:1002B000BF0202D43240141C00E014430C4AD46044
:1002C00001330235102B00D041E705B03CBC90460D
:1002D0009946A246AB46F0BD00E4FFAF00100240D5
:1002E000000001400004005000080050000C0050C5
:1002F00000040140F0B55F4656464D464446F0B412
:10030000002303229446043290462B4D01229A404A
:100310000C1C1440944245D1026891465A0067462D
:100320009740FA434F4617400760DF08BF00B946C1
:1003300081444F463F6ABB4647461F40BF00BA460E
:100340000F275646B740BA465F465646B7434E4615
:1003500037628668371C174087604668E443371C5D
:1003600027404760C6683240C2609A089200134E28
:10037000B1464A449668B24667461F40BE000F2702
:10038000B740B94657464E46B74397602A68224061
:100390002A606A6822406A60AA682240AA60EA6805
:1003A0001440EC600133102BB0D13CBC9046994610
:1003B000A246AB46F0BDC04600040140000001402B
:1003C00000690840411E8841C0B27047002A01D030
:1003D000816100E081627047436959404161704723
:1003E00082B080235B020193019B0B430193019B2D
:1003F000C361C161019BC361C3690193C069000C02
:1004000001235840184002B07047C0467047C046AC
:1004100008B5044B5B69034203D0024B586103F0FB
:100420004DFA08BD0004014003688022D2059042C5
:1004300013D1702293434A68134302E0094A904261
:1004400003D1094A1340CA68134303608B68C3622F
:100450000B6883620123436103E0044A9042EDD1BB
:10046000EFE7704700140140FFFCFFFF0008014068
:1004700030B5036A012293430362036A44688269C8
:100480007325AA430D682A430225AB438D682B438D
:10049000446082614A684263036230BD30B5036ADA
:1004A000102293430362036A45688469074A224025
:1004B0000C68240222432024A3438C682401234394
:1004C000456082614A688263036230BDFF8CFFFF32
:1004D00070B5141C026A0125AA4302628269056A8A
:1004E0008026F605B04205D00C4EB04202D00C4E2C
:1004F000B04203D10326B243224303E00324A243C4
:10050000023C2243F024A2431B011A430A232C1C61
:100510009C4321438261016270BDC04600080140D6
:100520000014014010B5036A01248C40A343036208
:10053000036A8A401A43026210BDC0467047C04633
:1005400038B5002811D0041C3523C35C002B01D121
:1005500002F016F8352502236355211C01C9FFF767
:1005600063FF01236355002000E0012038BDC04631
:100570007047C04638B5002811D0041C3523C35C31
:10058000002B01D1FFF7F4FF352502236355211C11
:1005900001C9FFF749FF01236355002000E0012056
:1005A00038BDC0467047C04638B5002811D0041C7D
:1005B0003523C35C002B01D1FFF7F4FF352502235F
:1005C0006355211C01C9FFF72FFF0123635500204C
:1005D00000E0012038BDC0467047C04638B500284D
:1005E00011D0041C3523C35C002B01D1FFF7F4FFAD
:1005F000352502236355211C01C9FFF715FF01238F
:100600006355002000E0012038BDC0467047C04659
:1006100070B500281BD00D1C041C3523C35C002BB7
:1006200001D1FFF7F3FF35260223A355211C01C991
:10063000FFF7FAFE2268136808218B4313602368D2
:100640001968294319600123A355002000E0012007
:1006500070BDC0467047C046F8B500283FD00D1C9D
:10066000041C3523C35C002B01D1FFF7F3FF3526B3
:100670000223A3552268936807218B439360211CB2
:1006800001C9FFF7D1FE206887688169026A2B687B
:100690001F43144B0B40A96909020B43A9680B4384
:1006A00011490B409C46EB691B022969090119435A
:1006B000EB680B43296A09030B4361460B43AA21EC
:1006C0008A43696909010A4369680A4387602168A6
:1006D0008B6123681A620123A355002000E00120EA
:1006E000F8BDC046FCFCFFFF0303FFFF7047C04698
:1006F00010B5041C02223523C2540368196A084A43
:10070000114203D11A6801218A431A60201C01F0AA
:1007100067FF00233522A354013AA354002010BDE3
:10072000111100007047C04610B5041C0222352389
:10073000C2540368196A084A114203D11A68012198
:100740008A431A60201CFFF7EDFF00233522A354D3
:10075000013AA354002010BD111100007047C0469B
:1007600010B5041C02223523C2540368196A084AD2
:10077000114203D11A6801218A431A60201CFFF735
:10078000EDFF00233522A354013AA354002010BDED
:10079000111100007047C04610B5041C0222352319
:1007A000C2540368196A084A114203D11A68012128
:1007B0008A431A60201CFFF7EDFF00233522A35463
:1007C000013AA354002010BD111100007047C0462B
:1007D00010B5041C02223523C2540368196A084A62
:1007E000114203D11A6801218A431A60201CFFF7C5
:1007F000EDFF00233522A354013AA354002010BD7D
:10080000111100007047C04610B5041C02223523A8
:10081000C2540368196A084A114203D11A680121B7
:100820008A431A60201CFFF7EDFF00233522A354F2
:10083000013AA354002010BD1111000010B535225B
:10084000022383540468236801210B4323608154ED
:10085000002010BD02223523C2540368196A064ADB
:10086000114203D11A6801218A431A6001223523FB
:10087000C25400207047C046111100000168CA68C8
:1008800001231A43CA60026811680B4313600020F9
:100890007047C0460268D36801218B43D360036868
:1008A000196A044A114203D11A6801218A431A6065
:1008B000002070471111000038B53524055D333C28
:1008C000022D24D03523C35C012B07D1002902D18E
:1008D000013C002A1BD102243523C454131C041CE0
:1008E00082690C48D062A2690B48506322682C329E
:1008F000A06902F0FDFB2268D368802149000B4308
:10090000D3602268116801230B4313600024201C6C
:1009100038BDC0463D200008912000080268D1681B
:10092000084B0B40D3600368196A074A114203D190
:100930001A6801218A431A6001223523C25400201B
:100940007047C046FFFEFFFF1111000010B5041CE8
:1009500000680122FFF7E6FD2268116801230B43BE
:100960001360002010BDC04610B5041C00680022B2
:10097000FFF7D8FD2368196A044A114203D11A68A7
:1009800001218A431A60002010BDC04611110000E9
:1009900010B5041C04290ED002D8002905D01BE094
:1009A00008290ED00C2912D016E00268D068022364
:1009B0000343D36010E00268D06804230343D3608C
:1009C0000AE00268D06808230343D36004E00268A9
:1009D000D06810230343D36020680122FFF7A2FDF3
:1009E0002268116801230B431360002010BDC0462C
:1009F00010B5041C04290ED002D8002905D01BE034
:100A000008290ED00C2912D016E00268D368022003
:100A10008343D36010E00268D36804208343D3602B
:100A20000AE00268D36808208343D36004E00268C8
:100A3000D36810208343D36020680022FFF772FD43
:100A40002368196A044A114203D11A6801218A43B2
:100A50001A60002010BDC0461111000070B5352489
:100A6000055D333C022D6ED03334045D012C06D17C
:100A7000002A01D1002B66D1022535240555161C0C
:100A80000D1C041C04291BD002D8002905D04FE0FE
:100A9000082928D00C2939D04AE0C2692B49D162F3
:100AA000C2692B49516302683432C069311C02F0BB
:100AB0001FFB2268D368802189000B43D36037E095
:100AC000026A2249D162026A2149516302683832BE
:100AD000006A311C02F00CFB2268D3688021C90037
:100AE0000B43D36024E0426A1849D162426A184934
:100AF000516302683C32406A311C02F0F9FA226804
:100B0000D368802109010B43D36011E0826A0F4949
:100B1000D162826A0E49516302684032806A311C98
:100B200002F0E6FA2268D368802149010B43D360C2
:100B30002068291C0122FFF7F5FC226811680123B7
:100B40000B4313600024201C70BDC04669200008C0
:100B50009120000810B5041C04290ED002D80029E9
:100B600005D01BE008290ED00C2912D016E002682F
:100B7000D068134B0340D36010E00268D068114B7B
:100B80000340D3600AE00268D0680F4B0340D36093
:100B900004E00268D0680D4B0340D3602068002257
:100BA000FFF7C0FC2368196A094A114203D11A6889
:100BB00001218A431A6001223523E254002010BD2E
:100BC000FFFDFFFFFFFBFFFFFFF7FFFFFFEFFFFF53
:100BD0001111000010B5041C00680122FFF7A2FCEF
:100BE0002268116801230B431360002010BDC0462A
:100BF00010B5041C00680022FFF794FC2368196AF2
:100C0000054A114203D11A6801218A431A60012260
:100C10003523E254002010BD1111000010B5041C52
:100C200004290ED002D8002905D01BE008290ED0D7
:100C30000C2912D016E00268D06802230343D36067
:100C400010E00268D06804230343D3600AE002681E
:100C5000D06808230343D36004E00268D0681023FF
:100C60000343D36020680122FFF75CFC226811680F
:100C700001230B431360002010BDC04610B5041CB7
:100C800004290ED002D8002905D01BE008290ED077
:100C90000C2912D016E00268D36802208343D36087
:100CA00010E00268D36804208343D3600AE002683E
:100CB000D36808208343D36004E00268D36810201F
:100CC0008343D36020680022FFF72CFC2368196A55
:100CD000044A114203D11A6801218A431A60002094
:100CE00010BDC0461111000070B53524055D333CC0
:100CF000022D6ED03334045D012C06D1002A01D1BF
:100D0000002B66D1022535240555161C0D1C041C2C
:100D100004291BD002D8002905D04FE0082928D08B
:100D20000C2939D04AE0C2692B49D162C2692B49EA
:100D3000516302683432C069311C02F0D9F922686B
:100D4000D368802189000B43D36037E0026A2249CF
:100D5000D162026A2149516302683832006A311C4B
:100D600002F0C6F92268D3688021C9000B43D36022
:100D700024E0426A1849D162426A18495163026804
:100D80003C32406A311C02F0B3F92268D3688021FA
:100D900009010B43D36011E0826A0F49D162826A74
:100DA0000E49516302684032806A311C02F0A0F99A
:100DB0002268D368802149010B43D3602068291C35
:100DC0000122FFF7AFFB2268116801230B43136078
:100DD0000024201C70BDC046692000089120000836
:100DE00010B5041C04290ED002D8002905D01BE040
:100DF00008290ED00C2912D016E00268D068134BD7
:100E00000340D36010E00268D068114B0340D36008
:100E10000AE00268D0680F4B0340D36004E0026828
:100E2000D0680D4B0340D36020680022FFF77AFBA7
:100E30002368196A094A114203D11A6801218A43B9
:100E40001A6001223523E254002010BDFFFDFFFF90
:100E5000FFFBFFFFFFF7FFFFFFEFFFFF1111000098
:100E600010B5041C00680122FFF75CFB22681168C2
:100E700001230B431360002010BDC04610B5041CB5
:100E800000680022FFF74EFB2368196A044A1142EA
:100E900003D11A6801218A431A60002010BDC046A0
:100EA0001111000010B5041C04290ED002D800292D
:100EB00005D01BE008290ED00C2912D016E00268DC
:100EC000D06802230343D36010E00268D068042393
:100ED0000343D3600AE00268D06808230343D36069
:100EE00004E00268D06810230343D3602068012225
:100EF000FFF718FB2268116801230B4313600020E1
:100F000010BDC04610B5041C04290ED002D800291B
:100F100005D01BE008290ED00C2912D016E002687B
:100F2000D36802208343D36010E00268D3680420B2
:100F30008343D3600AE00268D36808208343D36008
:100F400004E00268D36810208343D3602068002245
:100F5000FFF7E8FA2368196A044A114203D11A68B4
:100F600001218A431A60002010BDC0461111000003
:100F700038B53524055D333C022D69D03334045D2A
:100F8000012C06D1002A01D1002B61D10225352484
:100F900005550D1C041C04291AD002D8002905D0BF
:100FA0004BE0082926D00C2936D046E0C1692948F3
:100FB000C862E1692848486321683431E06902F079
:100FC00097F82268D368802189000B43D36034E00E
:100FD000016A2048C862216A1F4848632168383185
:100FE000206A02F085F82268D3688021C9000B438B
:100FF000D36022E0416A1748C862616A16484863B4
:1010000021683C31606A02F073F82268D36880215D
:1010100009010B43D36010E0816A0E48C862A16ADF
:101020000D48486321684031A06A02F061F82268E7
:10103000D368802149010B43D3602068291C012219
:10104000FFF770FA2268116801230B431360002434
:10105000201C38BD552000089120000810B5041C44
:1010600004290ED002D8002905D01BE008290ED093
:101070000C2912D016E00268D068134B0340D360ED
:1010800010E00268D068114B0340D3600AE00268A8
:10109000D0680F4B0340D36004E00268D0680D4B6A
:1010A0000340D36020680022FFF73CFA2368196AE6
:1010B000094A114203D11A6801218A431A600122A8
:1010C0003523E254002010BDFFFDFFFFFFFBFFFFB3
:1010D000FFF7FFFFFFEFFFFF1111000010B5041C29
:1010E000006800210122FFF71DFA20680421012277
:1010F000FFF718FA002010BD10B5041C006800218D
:101100000022FFF70FFA206804210022FFF70AFAF5
:101110002368196A044A114203D11A6801218A43DB
:101120001A60002010BDC0461111000010B5041C4B
:101130000268D16802230B43D3600268D16804239C
:101140000B43D360006800210122FFF7EBF9206810
:1011500004210122FFF7E6F9002010BD10B5041CA0
:101160000268D36802218B43D3600268D3680231DE
:101170008B43D360006800210022FFF7D3F9206879
:1011800004210022FFF7CEF92368196A044A1142AC
:1011900003D11A6801218A431A60002010BDC0469D
:1011A0001111000010B5041C002902D0042906D03A
:1011B0000BE0006800210122FFF7B4F90FE000689E
:1011C00004210122FFF7AEF909E0006800210122A5
:1011D000FFF7A8F9206804210122FFF7A3F922688C
:1011E000116801230B431360002010BD10B5041CCF
:1011F000002902D0042906D00BE00068002100225B
:10120000FFF790F90FE0006804210022FFF78AF948
:1012100009E0006800210022FFF784F9206804211A
:101220000022FFF77FF92368196A044A114203D1AB
:101230001A6801218A431A60002010BD11110000B4
:1012400010B5041C002902D004290BD015E0006859
:1012500000210122FFF766F92268D16802230B43BF
:10126000D3601EE0006804210122FFF75BF92268C9
:10127000D16804230B43D36013E0006800210122EE
:10128000FFF750F9206804210122FFF74BF922688B
:10129000D16802230B43D3602268D16804230B4337
:1012A000D3602268116801230B431360002010BD36
:1012B00010B5041C002909D100680022FFF732F99B
:1012C0002268D36802218B43D3601FE0042909D12F
:1012D00000680022FFF726F92268D36804218B43B7
:1012E000D36013E0006800210022FFF71BF920689B
:1012F00004210022FFF716F92268D36802218B43EC
:10130000D3602268D36802318B43D3602368196AA3
:10131000054A114203D11A6801218A431A60012249
:101320003523E254002010BD11110000F0B583B048
:1013300008AC26883524075D333C022F00D187E0B6
:101340003334045D012C09D1002A01D0002B02D1D5
:101350000124002E7CD10225352405550193041C5F
:10136000042921D018293ED0002970D1C3693A49F7
:10137000D962C3693949596301683431C069331C82
:1013800001F0B6FE2268D368802189000B43D36048
:101390002268116801230B43136020680021012299
:1013A000FFF7C0F8002453E0036A2B4ADA62036AAD
:1013B0002A4A5A6301683831006A019A331C01F0E5
:1013C00097FE2268D3688021C9000B43D36022684E
:1013D000116801230B431360206804210122FFF7E9
:1013E000A1F8002434E0C3691B4DDD62C3691B4FC3
:1013F0005F6301683431C069331C01F079FE236AF0
:10140000DD62236A5F6321683831206A019A331CE8
:1014100001F06EFE2268116801230B4313602068FF
:1014200000210122FFF77EF8206804210122FFF746
:1014300079F82268D368802189000B43D360226841
:10144000D3688021C9000B43D360002400E000244E
:10145000201C03B0F0BDC0465520000891200008B4
:1014600010B5041C002909D100680022FFF75AF8C2
:101470002268D168184B0B40D3601FE0042909D1C2
:1014800000680022FFF74EF82268D168134B0B402A
:10149000D36013E0006800210022FFF743F82068C2
:1014A00004210022FFF73EF82268D1680A4B0B4066
:1014B000D3602268D168094B0B40D3602368196A56
:1014C000074A114203D11A6801218A431A60012296
:1014D0003523E254002010BDFFFDFFFFFFFBFFFF9F
:1014E00011110000F8B5041C3423C35C0220012B49
:1014F0004DD001383423E05401300133E054042A44
:101500000CD002D8002A05D03AE0082A0AD00C2ACA
:101510001FD035E02068FEF7ABFF31E02068FEF712
:10152000BDFF2DE02368186A194A02401A621D6A3D
:101530005E68D869732290430A681043154A2A40AE
:101540008D682D022A435E60D8614968D9631A62AA
:1015500016E02368186A104A02401A621F6A5E6821
:10156000DA690E4810400A68150228430C4A3A40CE
:101570008D682D032A435E60D861496819641A6238
:1015800001223523E2540022013BE2540020F8BD41
:10159000FFFEFFFFFFFDFFFFFFEFFFFFFF8CFFFFE1
:1015A000FFDFFFFFF0B5474680B4041C3423C35C63
:1015B0000220012B00D195E00D1C01213423E154C0
:1015C00001310133E154002A10D1206829686A688A
:1015D000EB68FEF77DFF226893690C218B439361D2
:1015E00022689169AB680B43936174E0042A27D1A8
:1015F00023682A6890466868EE68196A1027B9431C
:10160000196299698C46196A384F62461740000280
:101610003843374F384036033043A026B143424663
:1016200012010A4398611A6222689169314B0B409A
:10163000936121688A69AB681B0213438B614AE09E
:10164000082A23D123682A686F68E8681E6A2A4935
:1016500031401962DE69196A8C4603218E433E438C
:10166000ED318E4300013043244966463140120279
:101670000A43D8611A622268D3690C218B43D36173
:101680002268D169AB680B43D36124E023682A68E0
:101690006868EE681F6A1A4939401962D9691F6A79
:1016A000BC46124F0F400002384311490840360330
:1016B000304314496646314012030A43D8611A6226
:1016C0002268D1690B4B0B40D3612168CA69AB68B2
:1016D0001B021343CB6101223523E2540022013B5C
:1016E000E254002004BC9046F0BDC046FFFCFFFF62
:1016F000FF0FFFFFFFF3FFFFFFFEFFFFFFF5FFFF01
:10170000FFEFFFFFFF5FFFFFF8B5041C3423C35C4E
:101710000220012B00D190E00D1C01213423E15463
:1017200001310133E154042A1CD002D8002A05D02B
:101730007CE0082A2CD00C2A50D077E02068291CA5
:10174000FEF796FE2268916908230B439361226895
:10175000936904218B43936122689169EB680B4381
:10176000936163E02068291CFEF798FE2268936964
:10177000802109010B439361226891692F4B0B4033
:10178000936121688A69EB681B0213438B614DE00A
:101790002368196A2A4A0A401A62186A5E68D96977
:1017A000732291432A681143264A0240A868000226
:1017B00002435E60D9616968D9631A622268D1699F
:1017C00008230B43D3612268D36904218B43D3617F
:1017D0002268D169EB680B43D36127E02368196A5B
:1017E000194A0A401A621F6A5E68DA69174911408D
:1017F0002A6810020143164A3A40A86800030243CF
:101800005E60D961696819641A622268D3698021AF
:1018100009010B43D3612268D169084B0B40D361A6
:101820002168CA69EB681B021343CB61012235238F
:10183000E2540022013BE2540020F8BDFFFBFFFF11
:10184000FFFEFFFFFFFDFFFFFFEFFFFFFF8CFFFF2E
:10185000FFDFFFFFF0B585B0041C9A427ED0342034
:10186000255C3238012D7AD01E1C0D1C0121342339
:10187000E15401310133E1542B6800936B6801930B
:10188000AB680293002A02D0042A05D008E0206841
:101890006946FEF7EDFD03E020686946FEF7FEFDB0
:1018A000002E02D0042E20D050E0E9682A696B692E
:1018B0002068FEF70DFE226893690C218B4393612B
:1018C0002268936864318B43936022689168502347
:1018D0000B4393602268936807218B4393602268CF
:1018E000916806230B43936030E02368EA68286917
:1018F0006D69196A1026B14319629F69196A194EF8
:101900003E4000023043184E30402D032843A025AE
:10191000A94312010A4398611A6222689169134B24
:101920000B4093612268936870218B439360226817
:10193000916860230B4393602268936807218B436F
:1019400093602268916806230B439360012235233C
:10195000E2540022013BE254002000E0012005B0E7
:10196000F0BDC046FFFCFFFFFF0FFFFFFFF3FFFFCF
:10197000F8B53524055D333C022D00D196E03334B3
:10198000045D012C08D1002B03D1069D002D00D051
:101990008CE00225352405551F1C151C0E1C041C4B
:1019A0008023DB009A4236D008D880235B009A421D
:1019B00011D00133FF339A421DD06BE080235B01CD
:1019C0009A4248D08023DB019A4254D080231B01E5
:1019D0009A425FD12FE08369354ADA628369354ADA
:1019E0005A6302684C32069B1B0A01338069391C1A
:1019F00001F07EFB4EE0C3692F4ADA62C3692D4ACB
:101A00005A6302684C32069B1B0A0133C069391CB9
:101A100001F06EFB3EE0036A274ADA62036A254A58
:101A20005A6302684C32069B1B0A0133006A391C58
:101A300001F05EFB2EE0436A1F4ADA62436A1D4AE8
:101A40005A6302684C32069B1B0A0133406A391CF8
:101A500001F04EFB1EE0836A174ADA62836A154A78
:101A60005A6302684C32069B1B0A0133806A391C98
:101A700001F03EFB0EE0C36A104ADA62C36A0D4A07
:101A80005A6302684C32069B1B0A0133C06A391C38
:101A900001F02EFB23680699314399642368DA68C4
:101AA0001543DD6001223523E2540024201CF8BDDB
:101AB0003D20000891200008692000087D200008D2
:101AC0000268D3688B43D36000207047F8B5352493
:101AD000055D333C022D00D196E03334045D012CCA
:101AE00008D1002B03D1069D002D00D08CE00225EB
:101AF000352405551E1C151C0F1C041C8023DB00FF
:101B00009A4236D008D880235B009A4211D0013324
:101B1000FF339A421DD06BE080235B019A4248D08C
:101B20008023DB019A4254D080231B019A425FD16B
:101B30002FE08369354ADA628369354A5A6301685E
:101B40004C31069B1B0A01338069321C01F0D0FA2C
:101B50004EE0C3692F4ADA62C3692D4A5A630168AD
:101B60004C31069B1B0A0133C069321C01F0C0FADC
:101B70003EE0036A274ADA62036A254A5A6301682B
:101B80004C31069B1B0A0133006A321C01F0B0FA8B
:101B90002EE0436A1F4ADA62436A1D4A5A630168AB
:101BA0004C31069B1B0A0133406A321C01F0A0FA3B
:101BB0001EE0836A174ADA62836A154A5A6301682B
:101BC0004C31069B1B0A0133806A321C01F090FAEB
:101BD0000EE0C36A104ADA62C36A0D4A5A630168AA
:101BE0004C31069B1B0A0133C06A321C01F080FA9B
:101BF00023680699394399642368DA681543DD60E0
:101C000001223523E2540024201CF8BD3D200008A9
:101C100091200008552000087D2000080268D36844
:101C20008B43D360002070473423C25C323B012ACF
:101C30000AD033330222C254026851610122C254D5
:101C40000022013BC2540023181C704770B5342396
:101C5000C45C323B012C63D001243233C4540134C0
:101C60000133C4544B68012B0BD10668B3688D68EF
:101C7000CC6825432B4C23402B430C69240223437F
:101C8000B360042A17D002D8002A05D041E0082A00
:101C900021D00C2A2ED03CE00B68002B05D0026826
:101CA000916980230B43936133E00268936980213B
:101CB0008B4393612DE00B68002B06D0026893697B
:101CC000802109020B43936123E002689169164B5E
:101CD0000B4093611DE00B68002B05D00268D169B1
:101CE00080230B43D36114E00268D36980218B43C6
:101CF000D3610EE00B68002B06D00268D369802107
:101D000009020B43D36104E00268D169064B0B4022
:101D1000D36101223523C2540022013BC254002367
:101D2000181C70BDFF00FFFFFF7FFFFF70B534235D
:101D3000C25C323B012A00D1D1E001223233C254CD
:101D400001320133C25402689468664B23409360A9
:101D50000B68402B00D181E00ED8102B00D1A0E001
:101D600003D8002B00D194E0B2E0202B00D1A0E0FA
:101D7000302B00D1A5E0ABE0702B14D004D8502B51
:101D800036D0602B4FD0A3E080225201934204D082
:101D900080229201934218D09AE00268936807214A
:101DA0008B43936094E00568AB684C688A68144381
:101DB0004D4A13402343CA6812021343AB600268C2
:101DC000916877230B43936082E00568AB684C68A9
:101DD0008A681443444A13402343CA6812021343D7
:101DE000AB60026893688021C9010B4393606FE088
:101DF00003684C68CA681D6A196A0126B1431962F2
:101E00009969EF36B14312010A430A218D43291C17
:101E100021439A61196201688B6870229343193AD1
:101E200013438B6054E003684A68CC68196A102534
:101E3000A94319629E69196A2C4D354024032C432D
:101E4000A025A94312010A439C611A6201688B68AC
:101E500070229343093A13438B6039E003684C685E
:101E6000CA681D6A196A0126B14319629969EF3679
:101E7000B14312010A430A218D43291C21439A616F
:101E8000196201688B6870229343293A13438B606F
:101E90001EE001688B6870229343693A13438B609C
:101EA00016E001688B6870229343593A13438B60A4
:101EB0000EE001688B6870229343493A13438B60AC
:101EC00006E001688B6870229343393A13438B60B4
:101ED00001223523C2540022013BC2540023181CA6
:101EE00070BDC0468800FFFFFF00FFFFFF0FFFFF30
:101EF0000268536880208343194351600020704773
:101F000070B53423C25C323B012A68D001223233DF
:101F1000C25401320133C254026893687024A3434F
:101F20004C6823430724A3430C68234393604B6806
:101F3000502B26D002D8402B11D049E0602B34D052
:101F4000702B45D10568AB688C68CA681443254A74
:101F5000134023430A6912021343AB6038E003685D
:101F60001D6A1A6A0124A2431A620468A369F02256
:101F700093431A1C0B691B011343A36103681D6281
:101F800026E003688C680A691D6A196A0126B14354
:101F900019629969EF36B14312010A430A218D4350
:101FA000291C21439A61196212E003688A680C694E
:101FB000196A1025A94319629E69196A0A4D3540AC
:101FC00024032C43A025A94312010A439C611A62F1
:101FD00001223523C2540022013BC2540023181CA5
:101FE00070BDC046FF00FFFFFF0FFFFF3423C25C40
:101FF000323B012A1DD001223233C25404290BD0B6
:1020000002D8002905D010E0082908D00C2909D0F1
:102010000BE003685B6B09E003689B6B06E00368F9
:10202000DB6B03E003681B6C00E00023002134221B
:102030008154181C7047C0467047C04608B5806A76
:1020400001223523C25401F0B9FC08BD7047C046D7
:102050007047C04608B5806A01223523C254FFF795
:10206000F7FF08BD7047C04608B5806A01223523D6
:10207000C254FFF7F7FF08BD7047C04608B5806A35
:1020800001223523C254FFF7F7FF08BD7047C04651
:1020900008B5806A01223523C254FFF7F7FF08BD57
:1020A0003523C05CC0B270473523C05CC0B27047F6
:1020B0003523C05CC0B270473523C05CC0B27047E6
:1020C0003523C05CC0B270473523C05CC0B27047D6
:1020D00010B5041C03681A69920715D5DA689207CF
:1020E00012D5032252421A610123037503689B69CA
:1020F0009B0702D0FFF7ACFF04E0FFF7A7FF201C0F
:10210000FFF7B0FF0023237523681A69520719D51A
:10211000DA68520716D5052252421A610223237546
:1021200023689A69C0239B001A4203D0201CFFF742
:102130008FFF05E0201CFFF789FF201CFFF792FFAF
:102140000023237523681A69120717D5DA68120766
:1021500014D5092252421A61042323752368DB69CE
:102160009B0703D0201CFFF773FF05E0201CFFF73F
:102170006DFF201CFFF776FF0023237523681A6983
:10218000D20619D5DA68D20616D5112252421A6142
:10219000082323752368DA69C0239B001A4203D001
:1021A000201CFFF755FF05E0201CFFF74FFF201C08
:1021B000FFF758FF0023237523681A69D20708D553
:1021C000DA68D20705D5022252421A61201C01F0BA
:1021D000F5FB23681A69520608D5DA68520605D558
:1021E000412252421A61201CFFF746FF10BDC04633
:1021F000F0B583B00091141E012C05D880235B42FA
:1022000018436B46D87104E040235B4218436B4689
:10221000D871A026F605301C10210022FEF7D6F852
:102220000B4F381C6B46D91D0122002302F09EFC87
:10223000084D2870A2B2381C0099002302F02CFF30
:102240002870301C10210122FEF7C0F803B0F0BD49
:10225000E40400203805002010B5334B1B78002023
:10226000002B60D0314C2830211C0622FFF7C0FF24
:102270006278120223781A432D4B1A80E2781202F8
:10228000A1780A435A806279120221790A439A801E
:102290001A881B8912B21BB2FA21C9008C4663440A
:1022A00001209A4235DC224B1A881B8912B21BB2DC
:1022B00020498C4663449A422BDB1D4B5A885B892C
:1022C00012B21BB2FA21C9008C4663449A4220DC48
:1022D000174B5A885B8912B21BB216498C4663446D
:1022E0009A4216DB124B9A889B8912B21BB2FA21D2
:1022F000C9008C4663449A420BDC0D4B9A889B893B
:1023000012B21BB20B498C4663449A4200DB002098
:10231000C0B2074B1A8892B21A815A8892B25A8177
:102320009A8892B29A8110BDE2040020DC04002059
:102330009404002030F8FFFF30B583B001AC20706A
:102340006170A025ED05281C10210022FEF73EF843
:102350000748211C0222002302F008FC054B1870DC
:10236000281C10210122FEF731F8002003B030BDF7
:10237000E40400203805002010B50C4C0F20211C6F
:102380000122FFF735FF2378492B0BD1202067214D
:10239000FFF7D2FF2120C021FFF7CEFF0122044B1F
:1023A0001A7002E00022024B1A7010BDDC040020FB
:1023B000E204002008B5064B1B78002B06D0202035
:1023C0000721FFF7B9FF0122014B1A7008BDC04673
:1023D000E2040020F8B5401A04F078FF051C224CF6
:1023E00020606060A16804F09DFB061CA0601F498E
:1023F00004F06CFB002802D01C4AA26008E0301CEC
:102400001B4904F04FFB002802D0194A164B9A6072
:10241000154CA06805F03CFA164A174B04F09EFFD5
:1024200005F08AFA071CE0602069291C04F0B0FD61
:1024300005F02EFA0F4A104B04F090FF05F07CFADD
:10244000061C60612561281C391C04F06BFB011C13
:10245000301C04F067FB011CA06904F099FDA06129
:1024600004F048FBF8BDC046A40400200000C842A8
:102470000000C8C27B14AE47E17A843F00B587B044
:1024800002680F4B9A4218D10E4A536B8021890083
:102490000B435363022301930133029300230393FD
:1024A000A020C00501A9FDF73BFE0C200021002261
:1024B00004F0A2F90C2004F0D3F907B000BDC04627
:1024C000002401400010024008B50268084B9A42FF
:1024D0000CD1084A516B084B0B405363A020C00538
:1024E0000221FDF707FF0C2004F0C4F908BDC04627
:1024F0000024014000100240FFFDFFFF00B587B03F
:102500000268104B9A421BD10F4A536B802149013C
:102510000B435363E0230193DE3B0293013B0393A0
:10252000002304930593A020C00501A9FDF7F8FD41
:1025300019200021002204F05FF9192004F090F91D
:1025400007B000BD003001400010024008B502682D
:10255000084B9A420CD1084A516B084B0B4053630D
:10256000A020C005F021FDF7C5FE192004F082F976
:1025700008BDC0460030014000100240FFEFFFFFE1
:1025800000B587B003688022D205934212D1124A67
:10259000916B01230B43936304230193023B02934A
:1025A0000022039204920593A020C00501A9FDF723
:1025B000B7FD0FE0094A93420CD1074A916B1023F3
:1025C0000B43936311200021002204F015F9112020
:1025D00004F046F907B000BD0010024000100040B2
:1025E00008B503688022D20593420AD10B4A936B47
:1025F00001218B439363A020C0050331FDF77AFED0
:102600000AE0074A934207D1044A936B10218B4397
:102610009363112004F02EF908BDC046001002405B
:10262000001000407047C0467047C04608B5084BD0
:1026300001214942996200229A6259625A621962E2
:102640001A62D961DA6104F093F8002008BDC0462F
:102650000010024010B5041C02F042F8FA21890073
:1026600004F07CF904F01EF901204042211C0022F4
:1026700004F0C2F8002010BD08B5084B19684022CC
:102680000A431A60196802220A431A600320FFF7FE
:10269000E1FF04F06BF8002008BDC04600200240B6
:1026A000024A1368013313607047C046C00400201B
:1026B000014B18687047C046C004002010B582B0B6
:1026C0000190FFF7F5FF041CFFF7F2FF019B001BD1
:1026D0009842F9D302B010BD024A136802218B431D
:1026E0001360704710E000E0024A116802230B43B8
:1026F0001360704710E000E00048704700000101DF
:10270000014B1868000C704700580140024B1868D4
:102710000005000D7047C04600580140024A51684C
:1027200001230B435360704700580140024A53682D
:1027300001218B435360704700580140024A5168A1
:1027400002230B435360704700580140024A53680C
:1027500002218B435360704700580140024A516880
:1027600004230B435360704700580140024A5368EA
:1027700004218B435360704700580140002904D066
:10278000044A53681843506003E0024A5368834385
:102790005360704700580140024B1868C0239B00EB
:1027A0001840704700000140002904D0044A5368D3
:1027B0001843506003E0024A5368834353607047F4
:1027C00000000140002805D0054A116A01230B438F
:1027D000136204E0024A136A01218B4313627047BB
:1027E00000000140044B1A6A30218A431A621A6AB7
:1027F000104318627047C04600000140002806D010
:10280000064A136A0221FF310B43136204E0034AB4
:10281000116A034B0B4013627047C0460000014031
:10282000FEFEFFFF002805D0054A136A05490B4349
:10283000136204E0024A116A034B0B4013627047B3
:102840000000014001020000FEFDFFFF002805D04E
:10285000054A136A05490B43136204E0024A116AF0
:10286000034B0B4013627047000001400110000051
:10287000FEEFFFFF002805D0054A136A05490B4308
:10288000136204E0024A116A034B0B401362704763
:102890000000014001200000FEDFFFFF002806D0FD
:1028A000064A136A802109060B43136204E0034AB7
:1028B000136A5B005B0813627047C046000001406A
:1028C00070B594B0134EB36B802252051343B363BB
:1028D000114A1368C02149010B4313601823019367
:1028E00001240694089400250995A0231B020A934D
:1028F0000B9501A801F098FA0F9410951195129577
:1029000013950FA8012101F01FFD736B1C43746325
:1029100014B070BD0010024000700040F0B5574682
:102920004E46C0B48DB0FFF7A7FEFFF7C9FF0120E8
:1029300040420021002203F05FFF794BDA6A042154
:102940008A460A43DA62DA6A01273A43DA62DA6AC5
:1029500002263243DA62C0231B020793032508953F
:10296000002409946F4807A9FDF7DAFB07976E4B1F
:10297000994608930996A020C00507A9FDF7D0FB4A
:1029800010230793089709940A94A020C00507A96B
:10299000FDF7C6FB654B079308950994A020C00579
:1029A00007A9FDF7BDFBE523079308950994604D42
:1029B000281C07A9FDF7B4FB87231B020793089780
:1029C00009940A94A020C00507A9FDF7A9FB1823C4
:1029D0000793089709940A94281C07A9FDF7A0FB00
:1029E00081235B0007934B4608930996281C07A98F
:1029F000FDF796FB07200021002203F0FDFE0720D3
:102A000003F02EFF05200021002203F0F5FE052033
:102A100003F026FF474D484B2B606C608023DB059D
:102A200099466B61AC61EE612C626C62AF62EC62E4
:102A30002C63AC635346EB632C646C64AC64EC6451
:102A4000281C03F0B7FA3D4B0793281C07A903F095
:102A500009FE3B483B4B036082235B00436084607C
:102A6000C46006614761FF36FF368661C461046257
:102A70004462846202F01EF8334F4B463B607C6038
:102A8000BC60324BFB603E61381CFDF759FD802372
:102A90005B010393381C03A9FFF748F9381CFDF7C5
:102AA00083FD60230793089409940A94381C07A9AE
:102AB0000822FEF729FE2023994601930294381C30
:102AC00001A903F05BFE224E224B3360FA23DB00A8
:102AD0007360B4606423F360301CFDF731FD4B4636
:102AE00007930894301C07A903F048FE301CFDF73B
:102AF000C5FE381C0821FDF729FFA020C0051021C4
:102B00000122FDF763FC281C002101F0C5FE094CE1
:102B1000201C03F025FE0128FAD100F0B1FFFCE7EC
:102B200000100240000800500000111008180000BA
:102B300000040050AC050020002401400200000405
:102B4000E40400200030014074050020204E000005
:102B50003C0500200010004008B5112003F0DCFE09
:102B60000148FFF7B5FA08BD3C05002008B507206D
:102B700003F0D2FE80204000FDF74AFC08BDC046AD
:102B800008B5FFF78DFD03F0E5FE08BD08B50C2084
:102B900003F0C2FE014803F0FDFC08BDAC050020B7
:102BA00008B5192003F0B8FE014803F0F7F808BD96
:102BB000E404002008B5052003F0AEFE0120FDF777
:102BC00027FC08BD104B1A68802149000A431A608F
:102BD000D9680E4A0A40DA6019680D4A0A401A603C
:102BE0009A6801218A439A6019680A4A0A401A6061
:102BF000D968094A0A40DA6000221A618022120567
:102C0000064B9A607047C046001002400C40FF8897
:102C1000F6FFF6FEFFFFFBFFFFFF02FF00ED00E007
:102C200008B52B4BDB680C221340042B13D002D8C1
:102C3000002B05D034E0082B11D00C2B13D02FE043
:102C4000234B5B681B045B0FFA2212029A40131C91
:102C5000204A13602FE0204A1E4B1A602BE01F4AC7
:102C60001C4B1A6027E01A4AD368D1689B021B0FDD
:102C70001848C3181B79DBB20902890F0131D268E9
:102C8000D20306D41448584303F068FE114B186071
:102C900011E01248584303F061FE0E4B18600AE041
:102CA0000B4B5B681B045B0F0133802212029A40BE
:102CB000131C084A1360064BDB681B061B0F054AF2
:102CC000D3181B7CDBB21168D940116008BDC04627
:102CD00000100240000000200024F40000127A00DE
:102CE0000D488546002103E00C4B5B5843500431EE
:102CF0000B480C4B42189A42F6D30B4A02E00023D1
:102D000013600432094B9A42F9D3FFF75BFF04F0DA
:102D1000C1FEFFF703FEFEE700200020D87C00087C
:102D2000000000207804002078040020080600201D
:102D3000FEE7000010B500287BD002222523C254F4
:102D400001680A683C4B1A40C368846823430469DD
:102D500023434469234384692343C4692343046AA6
:102D6000234313430B600368344A934209D1344B25
:102D70001A680F218A431A601A6841680A431A6068
:102D800052E0304A93420AD12D4B1A68F0218A430F
:102D90001A601A68416809010A431A6044E02A4A25
:102DA00093420AD1264B1968284A0A401A601A68C9
:102DB000416809020A431A6036E0254A93420AD163
:102DC0001F4B1968234A0A401A601A6841680903B0
:102DD0000A431A6028E0204A93420AD1184B196826
:102DE0001E4A0A401A601A68416809040A431A60B8
:102DF0001AE01B4A93420AD1114B1968194A0A403A
:102E00001A601A68416809050A431A600CE0164AFC
:102E1000934209D10A4B1968144A0A401A601A6889
:102E2000416809060A431A6001222523C254002082
:102E300000E0012010BDC0460FC0FFFF08000240A7
:102E4000A80002401C00024030000240FFF0FFFFDB
:102E500044000240FF0FFFFF58000240FFFFF0FF59
:102E60006C000240FFFF0FFF80000240FFFFFFF0F9
:102E700000B5002800D1F5E02523C35C022B00D16A
:102E8000F2E00268136801218B431360026800239B
:102E9000136002685360026893600268D36003683D
:102EA000724A934211D0724A934210D0714A9342AF
:102EB0000FD0714A93420FD0704A93420FD0704A9C
:102EC00093420FD0802252040EE001220CE0102227
:102ED0000AE08022520007E08022520104E08022B2
:102EE000520201E080225203664B5A6003685F4A37
:102EF000934211D05E4A934210D05E4A93420FD063
:102F00005D4A93420FD05D4A93420FD05C4A934290
:102F10000FD0802292040EE002220CE020220AE070
:102F20008022920007E08022920104E08022920237
:102F300001E080229203534B5A6003684B4A93424C
:102F400011D04B4A934210D04A4A93420FD04A4A7A
:102F500093420FD0494A93420FD0494A93420FD02F
:102F6000802212050EE008220CE080220AE0802276
:102F7000120107E08022120204E08022120301E025
:102F8000802212043F4B5A600368384A934211D0A2
:102F9000374A934210D0374A93420FD0364A934271
:102FA0000FD0364A93420FD0354A93420FD0802239
:102FB000D2040EE004220CE040220AE08022D2007B
:102FC00007E08022D20104E08022D20201E08022C8
:102FD000D2032C4B5A600368244A934205D12A4AF3
:102FE00013680F218B43136034E0214A934205D1CB
:102FF000254A1368F0218B4313602BE01D4A93424E
:1030000005D1214A1168214B0B40136022E01A4A76
:10301000934205D11C4A11681D4B0B40136019E007
:10302000164A934205D1184A11681A4B0B40136097
:1030300010E0134A934205D1134A1168164B0B4016
:10304000136007E0154A934204D10F4A1168144BEC
:103050000B4013600023836325228354013A835479
:10306000002002E0012000E0012000BD0800024035
:103070001C00024030000240440002405800024060
:103080006C00024000000240A8000240FFF0FFFF79
:10309000FF0FFFFFFFFFF0FFFFFF0FFF8000024069
:1030A000FFFFFFF070B52424055D223C012D1DD0EB
:1030B00001262234065502250134055505682C6881
:1030C000B4432C60046863608368102B04D10368E8
:1030D0009A600368D96003E0036899600368DA6066
:1030E0000268116801230B4313600024201C70BD8B
:1030F00070B52424055D223C012D2CD001262234FC
:10310000065502250134055505682C68B4432C602A
:10311000046863608368102B04D103689A600368B5
:10312000D96003E0036899600368DA600268116897
:1031300002230B4313600268116804230B431360DE
:103140000268116808230B431360026811680123A9
:103150000B4313600024201C70BDC046F8B5041C4E
:103160000268136801218B431360FFF7A1FA071C63
:103170000125FA26B60010E0FFF79AFAC01BB0420C
:103180000BD9A26B20231343A36300222423E25410
:1031900003320133E25403200AE023681B681D4216
:1031A000EAD100222423E25401320133E254002008
:1031B000F8BDC046F0B557464E464546E0B482B02D
:1031C000051C8A46171C002915D10368954A9342AD
:1031D00027D0954A934226D0944A934225D0944AC8
:1031E000934225D0934A934225D0934A934225D0C7
:1031F0008026B60434E003688A4A934221D08A4A82
:10320000934220D0894A93421FD0894A93421FD0CB
:10321000884A93421FD0884A93421FD08026F604E2
:103220001EE002261CE020261AE08026B60017E0E9
:103230008026B60114E08026B60211E08026B6038F
:103240000EE004260CE040260AE08026F60007E0A7
:103250008026F60104E08026F60201E08026F603CF
:10326000FFF726FA0190754C6E4B98466BE021688B
:103270002B6843450ED063450ED093420ED04B458C
:103280000FD06C4883420FD06B4883420FD0802010
:1032900000050EE008200CE080200AE080200001FC
:1032A00007E08020000204E08020000301E080208D
:1032B0000004014231D05B4A934211D05A4A9342F2
:1032C00010D05A4A93420FD0594A93420FD0594ACC
:1032D00093420FD0584A93420FD0802212050EE03D
:1032E00008220CE080220AE08022120107E08022FE
:1032F000120204E08022120301E0802212044F4BEC
:103300005A60AA6B01231343AB6304222523EA54BA
:103310000022013BEA5401207DE07B1C18D0002FE5
:1033200005D0FFF7C5F9019BC01A87420BD2AA6BE3
:1033300020231343AB6303222523EA540022013BDD
:10334000EA54032067E0384B9C46384A384B99468C
:10335000236833428BD05346002B2ED12B68314A41
:10336000934211D0304A934210D0304A93420FD04A
:103370002F4A93420FD02F4A93420FD02E4A9342A6
:103380000FD0802292040EE002220CE020220AE0FC
:103390008022920007E08022920104E080229202C3
:1033A00001E080229203254B5A6001222523EA5432
:1033B0000022013BEA5400202DE02B68194A934279
:1033C00011D0194A934210D0184A93420FD0184A8C
:1033D00093420FD0174A93420FD0174A93420FD00F
:1033E0008022D2040EE004220CE040220AE0802277
:1033F000D20007E08022D20104E08022D20201E064
:103400008022D2030D4B5A6005222523EA54002264
:10341000013BEA54002002B01CBC90469946A246EB
:10342000F0BDC046080002401C00024030000240CF
:1034300044000240580002406C000240000002407C
:1034400038B5041CB74B19680368B748834214D0D9
:10345000B648834200D13EE1B548834200D122E123
:10346000B448834200D12FE1B348834200D111E137
:10347000B248834200D01EE103E10A0700D595E17E
:10348000B4E11A6808218A431A602368A64A934265
:1034900011D0A64A934210D0A54A93420FD0A54A14
:1034A00093420FD0A44A93420FD0A44A93420FD024
:1034B000802212050EE008220CE080220AE0802221
:1034C000120107E08022120204E08022120301E0D0
:1034D00080221204934B5A60A26B01231343A3630F
:1034E00004222523E2540022013BE254636B002BAB
:1034F00001D0201C98478B4B196823688A48834267
:1035000000D131E18948834200D126E188488342D5
:1035100000D103E18748834200D116E18648834207
:1035200000D1E9E08548834200D0DCE0EDE00A42CA
:1035300000D064E1B3E11A68920603D41A6804214A
:103540008A431A602368784A934211D0774A93429B
:1035500010D0774A93420FD0764A93420FD0764AE2
:1035600093420FD0754A93420FD08022D2040EE0CE
:1035700004220CE040220AE08022D20007E08022F0
:10358000D20104E08022D20201E08022D203654B06
:103590005A6005222523E254236B002B01D0201C06
:1035A0009847604B186823681A1C02215E4DAB4295
:1035B0001ED05E498A420ED05D498A420DD05D49D7
:1035C0008A420DD05C498A420DD05C498A420DD0B6
:1035D000802189040CE020210AE08021890007E095
:1035E0008021890104E08021890201E08021890392
:1035F000014200D158E11A68920700D454E11A68D8
:10360000920603D41A6802218A431A602368464A44
:10361000934211D0454A934210D0454A93420FD06D
:10362000444A93420FD0444A93420FD0434A9342B4
:103630000FD0802292040EE002220CE020220AE049
:103640008022920007E08022920104E08022920210
:1036500001E080229203334B5A60A36BA3630122E3
:103660002523E2540022013BE254E36A002B00D1FF
:103670001AE1201C984717E12A4A11688022D203D8
:1036800055E70A0200D5ACE0F6E7264A1168802229
:10369000D2024CE70A0300D59AE0F6E7214A116806
:1036A0008022D20043E70A0565D4F7E71D4A116876
:1036B0008022D2043BE70A0100D580E0F6E7194AF0
:1036C00011688022D20132E70A045DD4F7E7154A77
:1036D000116840222BE70A065FD4F8E7114A106808
:1036E0008021890484E74A0100D5C8E0F6E70D4A45
:1036F0001068802189027BE74A0300D5CAE0F6E71B
:10370000084A10688021890372E74A0200D581E0E7
:10371000F6E7044A10688021890069E74A0500D568
:1037200097E0F6E700000240080002401C0002405B
:103730003000024044000240580002406C00024049
:103740005A4A10688021890152E74A0400D58BE06B
:10375000F6E7564A106820214AE74A0664D4F8E79B
:10376000524A1068022143E74A0767D4F8E74F4BF3
:1037700019682368D2E71A68120700D581E6F6E7D0
:103780004A4B19682368E0E71A68120700D578E603
:10379000F6E7464B19682368DFE71A68120700D579
:1037A0006FE6F6E7414B19682368DDE71A681207F0
:1037B00000D566E6F6E73D4B1968236893E71A687B
:1037C000120700D55DE6F6E7384B1968236893E7E2
:1037D0001A68120700D554E6F6E7344B19682368D7
:1037E00093E71A68120700D54BE6F6E72F4B1968E6
:1037F0002368B9E72D4B186823681A1CD9E61A68A4
:10380000520700D597E6F5E7284B18682368802112
:103810008903EDE61A68520700D58CE6F4E7234BDE
:10382000186823682021E3E61A68520700D582E66B
:10383000F5E71E4B186823680221D9E61A6852077B
:1038400000D578E6F5E7194B1868236880218900D0
:10385000CEE61A68520700D56DE6F4E7134B1868F8
:10386000236880218901C3E61A68520700D562E601
:10387000F4E70E4B1868236880218904B8E61A68BB
:10388000520700D557E6F4E7084B186823688021F3
:103890008902ADE61A68520700D54CE6F4E7034BFF
:1038A000186823681A1C84E638BDC0460000024030
:1038B0002523C05CC0B27047806B704708B52B4BA6
:1038C0001B78002B0BD1A020C0050121FCF778FD4F
:1038D000012804D1264B1A78244B1A703DE0234B63
:1038E0001B78012B04D1224B1A78204B1A7034E03C
:1038F000204880214900FCF763FD012813D11B4BB0
:103900001B78DBB2012B0ED9184B1B78DBB20A2BCC
:1039100009D8164B1B78022B05D0144A1378013BAB
:10392000DBB2137019E0A020C0050121FCF748FDAF
:10393000012812D10D4B1B78DBB2012B0DD90B4B9B
:103940001B78DBB20A2B08D8084B1B780A2B04D053
:10395000064A13780133DBB21370074B013B002B8F
:10396000FCD10022014B5A6008BDC046C4040020AF
:1039700020000020000400508813000010B50D48FE
:1039800002F0EEFE012814D10A4C201C02F070FC5B
:10399000201C642102F0ACFC201C02F0E1FE052892
:1039A00004D1044802F0DCFD034B9860014802F0AA
:1039B0007DFC10BDAC050020C404002008B50268E1
:1039C0001D4B9A4237D11D4A137B0133DBB213736F
:1039D000092B03D10122194B5A7307E00A2B05D199
:1039E000FFF7CCFF154B00221A735A73134A536822
:1039F0000133536096225200934210D10F4B1B7833
:103A0000DBB2012B17D90D4B1B78DBB20A2B12D876
:103A10000A4B2C3AFF3A1A7000225A600BE0E1225E
:103A2000D200934207D1054B1B78012B03D1034BE6
:103A300000221A705A6008BD00100040C404002023
:103A400008B50C4B9968FEF7C5FC0B4B984202D8A1
:103A5000084B186102E0084A064B1A61074B1A68C6
:103A6000044B597B0023002901D1024B1B69D3630E
:103A700008BDC046C4040020504600007405002064
:103A800008B57D4B1B78DBB20A2B00D9EFE09B0019
:103A90007A4AD3589F4600F085F9794B1B6800227B
:103AA000DA63FEF787FC0520FEF708FEFEF764FCEC
:103AB000E0E000F077F9704B5A69F423FF339A4243
:103AC00005D8704B18780238C0B200F0E5F86A4BA0
:103AD0005B69FA229200934203D90022664B5A6135
:103AE00002E00133644A5361654B1B680022DA63CC
:103AF000FEF7B2FB002805D0624B1A785E4B1A70B5
:103B000000225A61FEF7A8FBB4E000F04BF9022254
:103B10005C4B1A70002000F0BFF8FA204000FFF75D
:103B20008FFFFEF799FB002800D1A3E00022524B43
:103B30005A609FE000F036F90322524B1A700120C0
:103B400000F0AAF8C8208000FFF77AFFFEF784FB98
:103B5000002800D18EE00022474B5A608AE000F036
:103B600021F90422474B1A70022000F095F8FA2040
:103B70008000FFF765FFFEF76FFB00287AD0002278
:103B80003D4B5A6076E000F00DF905223D4B1A706E
:103B9000032000F081F83C48FFF752FFFEF75CFB82
:103BA000002867D00022344B5A6063E000F0FAF836
:103BB0000622344B1A70042000F06EF8FA20C00080
:103BC000FFF73EFFFEF748FB002853D000222A4BA8
:103BD0005A604FE000F0E6F807222A4B1A700520E1
:103BE00000F05AF82948FFF72BFFFEF735FB0028B5
:103BF00040D00022204B5A603CE000F0D3F808226D
:103C0000204B1A70062000F047F82148FFF718FFF4
:103C1000FEF722FB00282DD00022174B5A6029E026
:103C200000F0C0F80922174B1A70072000F034F892
:103C30001848FFF705FFFEF70FFB00281AD00022F7
:103C40000D4B5A6016E000F0ADF80A220D4B1A70C9
:103C5000082000F021F8FA200001FFF7F1FEFEF73E
:103C6000FBFA002806D00022034B5A6002E0012232
:103C7000014B1A7008BDC046C4040020247C000813
:103C80007405002020000020DC050000C4090000AD
:103C9000B80B0000AC0D000010B508287DD88000DE
:103CA0003E4B1B589F463E4810210122FCF78EFBDD
:103CB000A020C005802149000022FCF787FB6CE0B2
:103CC000374808210122FCF781FBA020C005802194
:103CD00049000022FCF77AFB5FE0A024E405201CE9
:103CE000802109020122FCF771FB201C8021490080
:103CF0000022FCF76BFB50E0294810210122FCF761
:103D000065FBA020C005802189000022FCF75EFB36
:103D100043E0234808210122FCF758FBA020C005FE
:103D2000802189000022FCF751FB36E0A024E40545
:103D3000201C802109020122FCF748FB201C802165
:103D400089000022FCF742FB27E0154810210122E0
:103D5000FCF73CFBA020C0058021C9000022FCF735
:103D600035FB1AE00E4808210122FCF72FFBA020AA
:103D7000C0058021C9000022FCF728FB0DE0A0242B
:103D8000E405201C802109020122FCF71FFB201CF6
:103D90008021C9000022FCF719FB10BD507C0008EF
:103DA0000004005038B5A024E405201C802109023D
:103DB0000022FCF70BFB0F4D281C08210022FCF70A
:103DC00005FB281C10210022FCF700FB201C802191
:103DD00049000122FCF7FAFA201C80218900012207
:103DE000FCF7F4FA201C8021C9000122FCF7EEFA4E
:103DF00038BDC04600040050084B1A6880214900B5
:103E00000A431A601968064A0A401A600021D960FC
:103E10001868044A02401A60196170470010024095
:103E2000FCFFF6FEFFFFFBFFF0B5474680B4041C25
:103E30000368DB0762D5CD4BDB680C221340082BEF
:103E400008D0CA4BDB6813400C2B0FD1C74BDB6883
:103E5000DB030BD5C54B1B689B034FD5012080238B
:103E60005B0262689A4200D060E247E0BF4A116894
:103E7000BF4B0B401360FEF71BFC8046BB4E8025FA
:103E8000AD02BC4F06E0FEF713FC4346C01AB84231
:103E900000D926E233682B42F5D1B44A1168B44BFD
:103EA0000B4061680B43136080235B0262689A4297
:103EB00012D1FEF7FDFB8046AC4E8025AD02AD4F22
:103EC00006E0FEF7F5FB4346C01AB84200D90AE205
:103ED00033682B42F5D011E0FEF7EAFB8046A34E93
:103EE0008025AD02A34F06E0FEF7E2FB4346C01A71
:103EF000B84200D9F9E133682B42F5D123689B071A
:103F000055D59A4BDB680C221340042B08D0974BF5
:103F1000DB6813400C2B15D1944BDB68DB0311D409
:103F2000924B1B685B0704D50120E368012B00D08E
:103F3000FCE18E484368226911028F4A13400B430B
:103F4000436034E0E368002B1DD088490A680920EB
:103F5000824313430B60FEF7ABFB071C834E042523
:103F600005E0FEF7A5FBC01B642800D9BFE133685C
:103F70001D42F6D07D484368226911027E4A1340F3
:103F80000B43436013E0794A136809218B431360A4
:103F9000FEF78EFB071C754E042505E0FEF788FB37
:103FA000C01B642800D9A4E133681D42F6D1236800
:103FB000DB0659D56D4BDB680C221A4217D16B4BCF
:103FC0001B689B0504D50120E369012B00D0ADE1FE
:103FD000664A5168694B0B40616A0B4353605368F2
:103FE000216A09061B021B0A0B4353603CE0E3698C
:103FF000002B24D05D4A1368802149000B431360D5
:10400000FEF756FB071C594E8025AD0005E0FEF774
:104010004FFBC01B642800D96DE133682B42F6D0FA
:10402000524A5168554B0B40616A0B4353605368C9
:10403000216A09061B021B0A0B43536014E04B4A1A
:1040400011684F4B0B401360FEF732FB071C474EC5
:104050008025AD0005E0FEF72BFBC01B642800D9CE
:104060004BE133682B42F6D123681B072BD56369DC
:10407000002B14D03D4A116D01230B431365FEF74D
:1040800017FB071C394E022505E0FEF711FBC01B8C
:10409000642800D933E1336D1D42F6D013E0334A72
:1040A000136D01218B431365FEF702FB071C2F4E96
:1040B000022505E0FEF7FCFAC01B642800D920E1C8
:1040C000336D1D42F6D123689B0638D5A369002BBA
:1040D0001CD0264B9968012211439960596B0A4301
:1040E0005A63284A136A28490B431362FEF7E0FA21
:1040F000071C1E4E022505E0FEF7DAFAC01B6428F5
:1041000000D900E1B3681D42F6D018E0174A936861
:1041100001218B4393601B4A116A1C4B0B401362B5
:10412000FEF7C6FA071C114E022505E0FEF7C0FA9D
:10413000C01B642800D9E8E0B3681D42F6D12368AB
:104140005B0777D5094A936B802149050B4393633D
:104150000F4A1368802149000B431360FEF7A8FA49
:10416000071C0B4E80256D001AE0C046001002406F
:10417000FFFFFAFF88130000FFE0FFFFFF1FFFFFB4
:10418000FFFEFFFF0000014001200000FEDFFFFFF7
:1041900000700040FEF78CFAC01B642800D9B6E01E
:1041A00033682B42F6D0634A116D634B0B401365A5
:1041B000FEF77EFA80465F4E8025AD005F4F06E039
:1041C000FEF776FA4346C01AB84200D9A1E0336D33
:1041D0002B42F5D1574A116D574B0B40A1680B4349
:1041E000136580235B00A2689A4212D1FEF760FA41
:1041F0008046504E8025AD00504F06E0FEF758FA3D
:104200004346C01AB84200D985E0336D2B42F5D041
:1042100010E0FEF74DFA8046464E8025AD00474F30
:1042200005E0FEF745FA4346C01AB84275D8336D2B
:104230002B42F6D1A36A0020002B77D03D4AD268EA
:104240000C210A400C2A6AD0022B34D1394A116859
:104250003B4B0B401360FEF72BFA071C354E8025B5
:10426000AD0404E0FEF724FAC01B642859D8336873
:104270002B42F7D12F49CB68606B226B1043E26A67
:104280001043304A13400343CB600B688022520432
:1042900013430B60FEF70CFA061C264D8024A40481
:1042A00004E0FEF705FA801B64283CD82B68234203
:1042B000F7D000203AE01F4A1168214B0B401360F1
:1042C000FEF7F6F9061C1B4D8024A40404E0FEF75B
:1042D000EFF9801B642828D82B682342F7D10020EF
:1042E00024E0032022E0032020E003201EE003203E
:1042F0001CE003201AE0032018E0032016E003204E
:1043000014E0032012E0032010E003200EE003205D
:104310000CE003200AE0032008E0032006E001206F
:1043200004E0032002E0032000E0032004BC9046E8
:10433000F0BDC04600100240FFFAFFFF88130000E6
:10434000FFFFFFFEFFFF02FFF8B54F464646C0B431
:10435000041C0D1CA24B1B68012213408B4200D38E
:1043600086E09F4A136801218B432B431360136837
:104370000B400120AB4200D02EE123689B0706D5FD
:10438000984AD368EF318B43A1680B43D36023680D
:10439000DB0700D4F7E06368022B05D1914A12686D
:1043A0000120920316D417E1002B05D18D4A126823
:1043B000012092050ED40FE1032B05D1894A126822
:1043C0000120920106D407E1864A126801205207B3
:1043D00000D401E18349CA68032082431343CB60C0
:1043E000FEF766F9051C6368022B0FD105E0FEF7A6
:1043F0005FF9401B404504D9DFE07A4F0C267A4B29
:104400009846FB683340082BF1D1BCE0032B0FD159
:1044100005E0FEF74DF9401B404504D9CFE0714F50
:104420000C26714B9846FB6833400C2BF1D1AAE067
:10443000002B0AD06B4F0C266B4B984613E0FEF70F
:1044400037F9401B404504D9BBE0664F0C26664B4C
:104450009846FB681E42F2D195E0FEF729F9401B11
:10446000404500D9AFE0FB683340042BF5D18AE02A
:1044700003689B0706D55B4AD368F0218B438168AC
:104480000B43D3602368DB0772D56368022B05D129
:10449000544A12680120920316D49DE0002B05D1E6
:1044A000504A1268012092050ED495E0032B05D1E5
:1044B0004C4A12680120920106D48DE0494A1268E4
:1044C0000120520700D487E04649CA68032082438E
:1044D0001343CB60FEF7ECF8061C6368022B11D186
:1044E00005E0FEF7E5F8801B484505D96DE03D4B3A
:1044F00098460C273C4B99464346DB683B40082BCB
:10450000EFD135E0032B11D105E0FEF7D1F8801B88
:10451000484505D95BE0334B98460C27324B99460A
:104520004346DB683B400C2BEFD121E0002B0BD046
:104530002C4B98460C272C4B994614E0FEF7B8F804
:10454000801B484505D944E0264B98460C27264B4E
:1045500099464346DB681F42F0D109E0FEF7A8F810
:10456000801B484537D84346DB683B40042BF5D1D8
:104570001B4A136801218B432B43136013680B40C4
:104580000120AB4228D123685B0706D5154AD168C4
:10459000164B0B40E1680B43D36023681B0707D51C
:1045A0001048C3682169C900114A13400B43C36016
:1045B0000320FEF74FF800200EE003200CE003205C
:1045C0000AE0032008E0032006E0032004E00320C3
:1045D00002E0032000E003200CBC90469946F8BDA1
:1045E000002002400010024088130000FFF8FFFF87
:1045F000FFC7FFFF30B587B00C1C151C114AD16AEC
:1046000001230B43D362002803D180235B00019375
:1046100002E080239B000193022302930133049361
:10462000002303930593A020C00501A9FBF778FDA3
:104630000449CA68044B1A402A4324061443CC6038
:1046400007B030BD00100240FFFFFF80034A13682F
:10465000802109030B4313607047C04600100240DD
:1046600008B5194A53681B045B0F9B00174958583B
:10467000D3680C221340082B21D00C2B07D0042B1D
:1046800020D1114B1B68DB061BD411481AE00E4ADF
:10469000D368D1689B021B0F0E48C35CDBB20902D2
:1046A000890F0131D268D20304D40948584302F07B
:1046B00055F907E00848584302F050F902E006486F
:1046C00000E0064808BDC04600100240747C0008A7
:1046D0000024F4002400002000127A0000093D00AC
:1046E00008B5FFF7BDFF064BDB681B061B0F054A2D
:1046F000D3181B7BDBB2D840034B186008BDC04603
:1047000000100240240000200000002008B5FFF740
:10471000E7FF054BDB685B055B0F044AD3181B7B87
:10472000DBB2D84008BDC046001002402400002083
:1047300008B5FFF7D5FF054BDB689B045B0F044A08
:10474000D3181B7BDBB2D84008BDC0460010024026
:10475000240000203F230360354B1B685B0303D517
:10476000A023DB02436009E0314B1B68DB0303D568
:1047700080235B02436001E0002343602C4B1B68F5
:10478000DB0502D50123C36101E00023C361284A90
:1047900013681B0E036253681B045B0F436293682C
:1047A000DB0702D50123836101E000238361204BF5
:1047B0001B68DB0702D50123C36001E00023C3604F
:1047C0001B4A5368DB04DB0E0361136D5B0503D5E5
:1047D000A023DB00836009E0154B1B6DDB0503D5CF
:1047E00080235B00836001E000238360104B1B6D1E
:1047F000DB0702D50123436101E0002343610C4B39
:104800001B68DB0102D50223836201E0012383627E
:10481000074AD16880235B020B40C362D3689B02C6
:104820001B0F0363D3681B029B0F43637047C04693
:104830000010024010B50F2303600D4BDA6803240B
:1048400022404260DA68ED3422408260DC68E02277
:10485000D2002240C260DA68E0239B011340DB08EB
:104860000361044B1B68012213400B6010BDC0465E
:1048700000100240002002407047C04608B5054BBA
:104880005B69DB0505D5FFF7F7FF80225200014B7E
:104890009A6108BD0010024070B55423C25C523BBF
:1048A000012A58D0041C01225233C2540268936872
:1048B00003210B40012B28D11368DB0745D424E0EA
:1048C000916802230B439360236803221A60FDF76B
:1048D000EFFE061C012514E004225523E2540022B9
:1048E000013BE254533B36E0FDF7E2FE801B0A2811
:1048F00007D903225523E2540022013BE254513BE5
:1049000029E023689B681D42EED1226893688021CC
:1049100009060B439360FDF7CBFE051C0CE0FDF789
:10492000C7FE401B0A2807D903225523E254002260
:10493000013BE254513B0EE023689B68002BEEDB09
:1049400000225423E254002305E0936805210B4024
:10495000012BC1D1B4E7181C70BDC0460268B42356
:10496000D3587F201840704730B55423C15C523B68
:10497000012923D001215233C15401688B680324DB
:104980002340012B0ED10B68DB0713D40AE0B423BC
:10499000CC587F25AC43CC500468E1580A43E25020
:1049A000002303E004225523C254543B0021542227
:1049B000815403E08B685B07E9D5F3E7181C30BD31
:1049C000F0B5474680B4061C0C1C171C1D1CFDF7D7
:1049D0006FFE8046002F2CD05EE06B1C2AD0002D8D
:1049E00005D0FDF765FE4346C01A854221D23268E4
:1049F0005368E0218B43536032681368A0398B43BE
:104A0000136080239B01B26A9A420AD1326811680E
:104A1000264B0B40136032681368802189010B43D9
:104A2000136001225123F2540022013BF25403206F
:104A300038E0326893682340A342CED1002031E0B1
:104A40006B1C2AD0002D05D0FDF732FE4346C01A5C
:104A5000854221D232685368E0218B43536032682B
:104A60001368A0398B43136080239B01B26A9A427A
:104A70000AD1326811680D4B0B401360326813681D
:104A8000802189010B43136001225123F25400223B
:104A9000013BF254032005E0326893682340A342AF
:104AA000CED0002004BC9046F0BDC046FFDFFFFF23
:104AB0007047C04638B500283AD0041C5123C35C67
:104AC000002B01D1FDF71AFD512102236354226806
:104AD00013684020834313602068A368626813430F
:104AE000E26813432269134362691343E269134383
:104AF000226A1343A26A134380229200A5692A40C6
:104B0000134303602268638B04200340606A0343FD
:104B100053602368E26A1A612268D069054B03403A
:104B2000D36100225223E254513B6354002000E041
:104B3000012038BDFFF7FFFF7047C04638B5002899
:104B400012D0041C512502234355026813684021EA
:104B50008B431360FDF7FAFC00235222A3546355E4
:104B6000023AA354002000E0012038BD38B5041CEF
:104B70001D1C5123C35C0220012B00D0D7E000296B
:104B800000D1CFE00138002A00D1D0E04F33E35C00
:104B90000130012B00D1CAE001385023E05411301C
:104BA0000133E0540023403023542163A286E2867F
:104BB000E364A364A387E38780239B01A26A9A42EC
:104BC0000AD1226811685A4B0B401360226813689F
:104BD000802189010B43136080231B02A2689A4243
:104BE00005D1226813688021C9010B431360236833
:104BF0001A68520603D4196840220A431A60E3680F
:104C0000002B31D16368002B02D0E38E012B08D139
:104C10002268236B591C21631B78D360E38E013B10
:104C2000E386E38E002B13D0201C022100222B1CD4
:104C3000FFF7C6FE002877D12268236B591C216339
:104C40001B78D360E38E013B9BB2E386002BEBD154
:104C500080239B01A26A9A4239D12268136880217D
:104C600049010B43136032E06368002B02D0E38EEE
:104C7000012B09D12368226B1288DA60236B02337F
:104C80002363E38E013BE386E38E002B14D0201CCC
:104C9000022100222B1CFFF793FE002846D1236837
:104CA000226B1288DA60236B02332363E38E013BAD
:104CB0009BB2E386002BEAD180239B01A26A9A4231
:104CC00005D122681368802149010B431360201C21
:104CD000022100222B1CFFF773FE002806D052226F
:104CE000A15C20230B43A354032020E0201C80213F
:104CF00001222B1CFFF764FE002806D05222A15C83
:104D000020230B43A354032011E0A368002B02D1FE
:104D10002368DA689B6801225123E2540022013B98
:104D2000E25404E0012002E0032000E0032038BD4B
:104D3000FFDFFFFF70B582B0041C5120255CEDB28F
:104D4000012D03D04F38222D00D0A0E1002900D141
:104D500092E1002A00D191E10120002B00D196E1DF
:104D60004F30255C4E38012D00D190E101254E30A9
:104D700025540130205C012802D1313550302554B2
:104D8000002052256055A263A387E3872163A38691
:104D9000E386A064E06480239B01A26A9A420AD160
:104DA00022681168BB4B0B40136022681368802196
:104DB00089010B43136023681A68520603D41968EB
:104DC00040220A431A6080231B01E2689A4200D005
:104DD00088E06368002B06D08222520093420CD1F7
:104DE000E38E012B09D12368226B1288DA60236BD2
:104DF00002332363E38E013BE386E38E002B20D155
:104E000080239B01A26A9A4205D1226813688021FF
:104E100049010B431360201C01210022069BFFF770
:104E2000CFFD031C0320002B00D030E12368DB689A
:104E3000A26B1380A36B0233A363E38F013BE38771
:104E4000CEE08025AD0180267601201C02210022C3
:104E5000069BFFF7B5FD002800D011E12368226B07
:104E60001288DA60236B02332363E38E013B9BB22B
:104E7000E386002B06D1A36AAB4203D122681368F4
:104E800033431360201C01210022069BFFF798FD8D
:104E9000002800D0F6E02368DB68A26B1380A36BC8
:104EA0000233A363E38F013BE387E38E002BCCD176
:104EB0006368002B00D093E0201C01210022069B98
:104EC000FFF77EFD031C0320002B00D0DFE02368EA
:104ED000DB68A26B1380A36B0233A363E38F013BF8
:104EE000E3877DE06368002B06D082225200934264
:104EF0000BD1E38E012B08D12268236B591C21634F
:104F00001B78D360E38E013BE386E38E002B1DD13B
:104F100080239B01A26A9A4205D1226813688021EE
:104F200049010B431360201C01210022069BFFF75F
:104F300047FD031C0320002B00D0A8E02368DB689A
:104F4000A26B1370E38F013BE38749E08025AD013D
:104F500080267601201C02210022069BFFF730FDEF
:104F6000002800D090E02268236B591C21631B7835
:104F7000D360E38E013B9BB2E386002B06D1A36A8C
:104F8000AB4203D12268136833431360201C012114
:104F90000022069BFFF714FD002877D1A36B5A1C53
:104FA000A2632268D2681A70E38F013BE387E38E25
:104FB000002BCFD16368002B12D1201C01210022CD
:104FC000069BFFF7FDFC031C0320002B5FD1A36BA6
:104FD0005A1CA2632268D2681A70E38F013BE387F0
:104FE00080239B01A26A9A4213D1201C0121002236
:104FF000069BFFF7E5FC002806D05222A15C0223A5
:105000000B43A354032042E02368DB689BB26A464B
:10501000D380201C80210122069BFFF7D1FC0028B1
:1050200006D05222A15C20230B43A35403202EE080
:1050300001225123E2542368996880229201A56AD3
:10504000954215D1CA0613D55221605C0222024353
:10505000625419680F4A0A401A6022681368802156
:1050600089010B43136000225023E25401200EE01B
:1050700000225023E2540AE0012008E0012006E06B
:10508000032004E0032002E0032000E0032002B03C
:1050900070BDC046FFDFFFFFF0B587B0051C0F1CD9
:1050A000161C03935123C35C0224012B00D015E18D
:1050B000002900D10BE1013C002A00D10EE14F3361
:1050C000C35C0134012B00D108E101225023C254FA
:1050D00021320133C254002330328354A9638687BE
:1050E000C6878364C3648386C38680231B02826869
:1050F0009A4204D1026811687A4B0B4013608023F6
:105100009B01AA6A9A420AD12A681168764B0B4021
:1051100013602A681368802189010B43136082237E
:105120005B006A689A420FD1AB68002B0CD1002259
:105130005033EA54039B0093281C391C3A1C331C3F
:10514000FFF7F8FD041CC9E02B681A68520603D467
:10515000196840220A431A60EB68002B03D0EB8FDA
:10516000012B24D839E0EB8F012B14D9281C012105
:105170000022039BFFF724FC002800D0A9E0AB6BC2
:105180005A1CAA632A68D2681A70EB8F013B9BB243
:10519000EB87012BEAD880239B01AA6A9A4227D188
:1051A0002A681368802149010B43136020E0281C02
:1051B00001210022039BFFF703FC002800D08AE0B6
:1051C0002B68DB68AA6B1380AB6B0233AB63EB8F8E
:1051D000013B9BB2EB87012BE9D880239B01AA6A94
:1051E0009A4205D12A681368802149010B43136054
:1051F000281C01210022039BFFF7E2FB041E6CD157
:10520000EB68002B06D1AB6B5A1CAA632A68D268E4
:105210001A7006E02B68DB68AA6B1380AB6B023355
:10522000AB63EB8F013BEB8780239B01AA6A9A4219
:1052300016D1281C01210022039BFFF7C1FB002887
:1052400006D05222A95C02230B43AB54032445E051
:105250002B68DB689BB20E2202A98C466244138045
:1052600082235B006A689A420DD1AB6880221202E9
:10527000934203D08022D200934204D12A6813685B
:1052800040218B43136001225123EA542B68996813
:1052900080229201A86A904215D1CA0613D55221E4
:1052A000685C022202436A5419680F4A0A401A6075
:1052B0002A681368802189010B4313600022502360
:1052C000EA5401240AE000225023EA5406E00124B3
:1052D00004E0032402E0032400E00324201C07B0C0
:1052E000F0BDC046FFBFFFFFFFDFFFFF10B551233A
:1052F000C45C4F3B012C52D100294FD0013B002A06
:105300004DD04F33C45C4E3B012C48D001244E336A
:10531000C45411340133C454002340340355214C88
:10532000C46401638286C28683648387C3878023C3
:105330001B0282689A4205D1026813688021C90164
:105340000B43136080239B01826A9A420AD1026850
:105350001168154B0B4013600268136880218901A6
:105360000B4313608368002B05D1026851688033BA
:105370000B43536004E002685168A0230B43536061
:1053800000225023C254026811680023490606D443
:10539000116840330B431360002300E00123181C05
:1053A00010BDC046FD580008FFDFFFFFF0B55124D7
:1053B000045DE4B2012C0AD00225822676004768FB
:1053C000B7424CD18668002E49D1222C47D1002902
:1053D00042D0002A42D00125002B40D05024045D49
:1053E0000135012C3BD0013D502405550134045DAD
:1053F000222C02D031355124055500255224055563
:10540000184CC46401638386C38617498164826330
:105410008387C38780239B01826A9A420AD10268EC
:105420001168124B0B4013600268136880218901D8
:105430000B43136002685168E0230B435360002262
:105440005023C25403681A680025520607D419680D
:1054500040220A431A6002E0012500E00125281CD1
:10546000F0BDC046FD580008215B0008FFDFFFFFCC
:1054700010B50C1C131C5122815C4F3A012958D1E4
:10548000002C55D0013A002B53D04F32815C4E3A5C
:1054900001294ED001214E328154213101328154F3
:1054A0000022303142542449816484638387C38756
:1054B000C2648286C2868268802109028A4205D13E
:1054C000026811681D4B0B4013600FE0002A0DD1DC
:1054D0000532FF324168914208D10021B43A81542B
:1054E000211C221CFFF762FF021C22E080239B018B
:1054F000826A9A420AD102681168114B0B4013600C
:1055000002681368802189010B43136002685168A7
:1055100060230B43536000225023C2540368196870
:10552000490606D4196840320A431A60002200E096
:105530000122101C10BDC046CD5A0008FFBFFFFF5E
:10554000FFDFFFFF10B5041C5123C35C0220012BB9
:1055500057D1002954D00138002A52D04F33E35C90
:105560000130012B4DD001385023E054113001336C
:10557000E0540023403023542163A286E286E36492
:10558000A364A387E38780231B02A2689A4205D104
:10559000226813688021C9010B43136080239B019B
:1055A000A26A9A420AD122681168164B0B40136016
:1055B00022681368802189010B431360236C124A0F
:1055C0001A63236C114ADA62236C114A5A63226807
:1055D0000C32E38E206C216BFDF78AFD2268516846
:1055E00002230B43536000225023E25423681A68BD
:1055F0000020520605D4196840220A431A6000E0D0
:10560000012010BDFFDFFFFFCD580008795B0008C7
:10561000595B0008F8B5041C5120255CEDB2012D42
:105620000AD04F38822676006768B74276D1A668DE
:10563000002E73D1222D71D100296CD0002A6CD09C
:105640000120002B6AD04F30255C4E38012D65D0EB
:1056500001254E3025540130205C222802D03135FE
:10566000512025540020522560552163A386E386EE
:10567000A263A387E387A064E06480239B01A26AFE
:105680009A420AD122681168254B0B4013602268A8
:105690001368802189010B4313605123E35C222BA3
:1056A00006D1636C1F4A1A63636C1F4ADA6205E015
:1056B000636C1E4A1A63636C1D4ADA62636C1D4D8B
:1056C0005D6321680C31E38F606CA26BFDF710FD08
:1056D0002268516801230B435360236C0022DA6275
:1056E000236C5D6322680C32E38E206C216BFDF726
:1056F000FFFC23681A68520603D4196840220A4343
:105700001A602268516802230B4353600022502321
:10571000E254002002E0012000E00120F8BDC04674
:10572000FFDFFFFFDD580008F15B0008ED580008BF
:10573000C55C0008595B000838B5041C0D1C131C1F
:105740005122825C0220012A67D1002964D00138ED
:10575000002B62D04F32A25C0130012A5DD00121C2
:105760005022A15421310132A1540022303162541F
:10577000A563A387E387A264E264A286E286A268A7
:10578000802109028A4205D122681168234B0B400F
:1057900013600FE0002A0DD10532FF32616891429B
:1057A00008D10021B43AA154201C291C2A1CFFF75F
:1057B00031FF32E080239B01A26A9A420AD122681B
:1057C0001168174B0B401360226813688021890110
:1057D0000B431360636C134A1A63636C124ADA62F8
:1057E000636C124A5A6321680C31E38F606CA26BC0
:1057F000FDF77EFC2268516801230B4353600022B1
:105800005023E25423681A680020520605D4196810
:1058100040220A431A6000E0012038BDFFBFFFFFAD
:10582000FFDFFFFFDD580008F15B0008595B00084F
:1058300030B55023C25C4E3B012A0DD050220124CA
:10584000845401684B680225AB434B6001684B6888
:10585000A3434B6000238354181C30BD30B5502344
:10586000C25C4E3B012A0DD05021013B43540468D9
:10587000656802222A4362600268546823435360C9
:1058800000234354181C30BD10B5041C006C0028C4
:1058900001D0FDF763FC606C002801D0FDF75EFCD1
:1058A0002268536802218B43536021684B680122B0
:1058B00093434B605123E254002010BD7047C04613
:1058C0007047C0467047C0467047C04608B5806AFA
:1058D000FFF7FAFF08BDC0467047C04608B5806AAA
:1058E000FFF7FAFF08BDC0467047C04608B5806A9A
:1058F000FFF7FAFF08BDC0467047C04610B5C36841
:10590000002B06D10268036B591C01631B78D3601E
:1059100006E00368026B1288DA60036B02330363EC
:10592000C38E013B9BB2C386002B53D180239B01C6
:10593000826A9A4205D102681368802149010B43AB
:105940001360041C022100226423FFF739F80028A9
:1059500004D05222A15C20230B43A3542268536835
:1059600080218B43536023685A68520632D45A68A8
:1059700060398A435A60201C603101226423FFF79A
:105980001FF8002804D05222A15C20230B43A3540B
:10599000A368002B02D12368DA689B685223E35C7A
:1059A000002B11D15133E35C322B06D101221F337E
:1059B000E254201CFFF786FF0CE001225123E25441
:1059C000201CFFF77BFF05E001225123E254201C3D
:1059D000FFF792FF10BDC04610B582B0041C8023B3
:1059E0009B01826A9A4230D1012100226423FEF792
:1059F000E7FF002804D05222A15C20230B43A354CC
:105A00002368DB689BB26A46D380201C01210122F7
:105A10006423FEF7D5FF002804D05222A15C202386
:105A20000B43A35423689A68D2060ED55221605CBA
:105A30000222024362541968234A0A401A6022680B
:105A40001368802189010B43136022685368402149
:105A50008B43536023685A68120632D45A6820393F
:105A60008A435A6082235B0062689A420DD1A36820
:105A700080221202934203D08022D200934204D1AA
:105A80002268136840218B4313605223E35C002B90
:105A900011D15133E35C322B06D101221F33E25482
:105AA000201CFFF70FFF0CE001225123E254201CC1
:105AB000FFF706FF05E001225123E254201CFFF707
:105AC0001BFF02B010BDC046FFDFFFFF08B5C36873
:105AD000002B06D1836B5A1C82630268D2681A704D
